{
  "contractName": "verifier",
  "abi": [
    {
      "inputs": [
        {
          "internalType": "address",
          "name": "sbt",
          "type": "address"
        },
        {
          "internalType": "address",
          "name": "checkRingSig",
          "type": "address"
        }
      ],
      "stateMutability": "nonpayable",
      "type": "constructor"
    },
    {
      "inputs": [
        {
          "internalType": "uint256[]",
          "name": "addresses",
          "type": "uint256[]"
        },
        {
          "internalType": "uint256[]",
          "name": "tees",
          "type": "uint256[]"
        },
        {
          "internalType": "uint256",
          "name": "seed",
          "type": "uint256"
        },
        {
          "internalType": "uint256",
          "name": "value",
          "type": "uint256"
        },
        {
          "internalType": "uint256",
          "name": "message",
          "type": "uint256"
        },
        {
          "internalType": "address",
          "name": "token",
          "type": "address"
        },
        {
          "internalType": "string",
          "name": "addressesURI",
          "type": "string"
        },
        {
          "internalType": "string",
          "name": "verifierData",
          "type": "string"
        }
      ],
      "name": "verify",
      "outputs": [],
      "stateMutability": "nonpayable",
      "type": "function"
    },
    {
      "inputs": [
        {
          "internalType": "uint256[]",
          "name": "addresses",
          "type": "uint256[]"
        }
      ],
      "name": "buildRoot",
      "outputs": [
        {
          "internalType": "bytes32",
          "name": "",
          "type": "bytes32"
        }
      ],
      "stateMutability": "pure",
      "type": "function",
      "constant": true
    },
    {
      "inputs": [
        {
          "internalType": "bytes32",
          "name": "root",
          "type": "bytes32"
        },
        {
          "internalType": "uint256[]",
          "name": "addresses",
          "type": "uint256[]"
        }
      ],
      "name": "verifyRoot",
      "outputs": [
        {
          "internalType": "bool",
          "name": "",
          "type": "bool"
        }
      ],
      "stateMutability": "pure",
      "type": "function",
      "constant": true
    },
    {
      "inputs": [
        {
          "internalType": "uint256[2]",
          "name": "points",
          "type": "uint256[2]"
        }
      ],
      "name": "pointToAddress",
      "outputs": [
        {
          "internalType": "address",
          "name": "",
          "type": "address"
        }
      ],
      "stateMutability": "pure",
      "type": "function",
      "constant": true
    }
  ],
  "bytecode": "0x60806040523480156200001157600080fd5b50604051620016f7380380620016f783398181016040528101906200003791906200012a565b816000806101000a81548173ffffffffffffffffffffffffffffffffffffffff021916908373ffffffffffffffffffffffffffffffffffffffff16021790555080600160006101000a81548173ffffffffffffffffffffffffffffffffffffffff021916908373ffffffffffffffffffffffffffffffffffffffff160217905550505062000171565b600080fd5b600073ffffffffffffffffffffffffffffffffffffffff82169050919050565b6000620000f282620000c5565b9050919050565b6200010481620000e5565b81146200011057600080fd5b50565b6000815190506200012481620000f9565b92915050565b60008060408385031215620001445762000143620000c0565b5b6000620001548582860162000113565b9250506020620001678582860162000113565b9150509250929050565b61157680620001816000396000f3fe608060405234801561001057600080fd5b506004361061004c5760003560e01c80635588eb4914610051578063782fecb414610081578063d414d221146100b1578063fe283b6c146100e1575b600080fd5b61006b60048036038101906100669190610a1d565b6100fd565b6040516100789190610a7f565b60405180910390f35b61009b60048036038101906100969190610b4b565b6101dd565b6040516100a89190610bb9565b60405180910390f35b6100cb60048036038101906100c69190610c00565b610265565b6040516100d89190610c77565b60405180910390f35b6100fb60048036038101906100f69190610d73565b61027a565b005b600080825167ffffffffffffffff81111561011b5761011a6108a4565b5b6040519080825280602002602001820160405280156101495781602001602082028036833780820191505090505b50905060005b83518110156101cb5783818151811061016b5761016a610e99565b5b60200260200101516040516020016101839190610ee9565b604051602081830303815290604052805190602001208282815181106101ac576101ab610e99565b5b60200260200101818152505080806101c390610f33565b91505061014f565b506101d581610602565b915050919050565b600080826000600281106101f4576101f3610e99565b5b602002015160001b905060008360016002811061021457610213610e99565b5b602002015160001b905060008282604051602001610233929190610f9c565b604051602081830303815290604052905060008180519060200120905060008160001c90508095505050505050919050565b600082610271836100fd565b14905092915050565b60006002895161028a9190610ff7565b1480156102a45750600288516102a09190611028565b8751145b6102e3576040517f08c379a00000000000000000000000000000000000000000000000000000000081526004016102da906110b6565b60405180910390fd5b833373ffffffffffffffffffffffffffffffffffffffff161461033b576040517f08c379a000000000000000000000000000000000000000000000000000000000815260040161033290611122565b60405180910390fd5b600160009054906101000a900473ffffffffffffffffffffffffffffffffffffffff1673ffffffffffffffffffffffffffffffffffffffff16633b40da01898989886040518563ffffffff1660e01b815260040161039c949392919061120f565b602060405180830381865afa1580156103b9573d6000803e3d6000fd5b505050506040513d601f19601f820116820180604052508101906103dd919061128e565b61041c576040517f08c379a000000000000000000000000000000000000000000000000000000000815260040161041390611307565b60405180910390fd5b60005b885181101561055457858473ffffffffffffffffffffffffffffffffffffffff166370a082316104a260405180604001604052808e878151811061046657610465610e99565b5b602002602001015181526020018e6001886104819190611327565b8151811061049257610491610e99565b5b60200260200101518152506101dd565b6040518263ffffffff1660e01b81526004016104be9190610bb9565b602060405180830381865afa1580156104db573d6000803e3d6000fd5b505050506040513d601f19601f820116820180604052508101906104ff9190611370565b1015610540576040517f08c379a00000000000000000000000000000000000000000000000000000000081526004016105379061140f565b60405180910390fd5b60028161054d9190611327565b905061041f565b506000610560896100fd565b905060008054906101000a900473ffffffffffffffffffffffffffffffffffffffff1673ffffffffffffffffffffffffffffffffffffffff1663c44bef5d338686858a886040518763ffffffff1660e01b81526004016105c59695949392919061149d565b600060405180830381600087803b1580156105df57600080fd5b505af11580156105f3573d6000803e3d6000fd5b50505050505050505050505050565b600080825103610617576000801b9050610875565b6001825103610643578160008151811061063457610633610e99565b5b60200260200101519050610875565b6001600283516106539190610ff7565b03610759576000600183516106689190611327565b67ffffffffffffffff811115610681576106806108a4565b5b6040519080825280602002602001820160405280156106af5781602001602082028036833780820191505090505b50905060005b835181101561070b578381815181106106d1576106d0610e99565b5b60200260200101518282815181106106ec576106eb610e99565b5b602002602001018181525050808061070390610f33565b9150506106b5565b50826001845161071b919061150c565b8151811061072c5761072b610e99565b5b60200260200101518184518151811061074857610747610e99565b5b602002602001018181525050809250505b6000600283516107699190611028565b67ffffffffffffffff811115610782576107816108a4565b5b6040519080825280602002602001820160405280156107b05781602001602082028036833780820191505090505b50905060005b8351811015610867578381815181106107d2576107d1610e99565b5b6020026020010151846001836107e89190611327565b815181106107f9576107f8610e99565b5b6020026020010151604051602001610812929190610f9c565b60405160208183030381529060405280519060200120826002836108369190611028565b8151811061084757610846610e99565b5b6020026020010181815250506002816108609190611327565b90506107b6565b5061087181610602565b9150505b919050565b6000604051905090565b600080fd5b600080fd5b600080fd5b6000601f19601f8301169050919050565b7f4e487b7100000000000000000000000000000000000000000000000000000000600052604160045260246000fd5b6108dc82610893565b810181811067ffffffffffffffff821117156108fb576108fa6108a4565b5b80604052505050565b600061090e61087a565b905061091a82826108d3565b919050565b600067ffffffffffffffff82111561093a576109396108a4565b5b602082029050602081019050919050565b600080fd5b6000819050919050565b61096381610950565b811461096e57600080fd5b50565b6000813590506109808161095a565b92915050565b60006109996109948461091f565b610904565b905080838252602082019050602084028301858111156109bc576109bb61094b565b5b835b818110156109e557806109d18882610971565b8452602084019350506020810190506109be565b5050509392505050565b600082601f830112610a0457610a0361088e565b5b8135610a14848260208601610986565b91505092915050565b600060208284031215610a3357610a32610884565b5b600082013567ffffffffffffffff811115610a5157610a50610889565b5b610a5d848285016109ef565b91505092915050565b6000819050919050565b610a7981610a66565b82525050565b6000602082019050610a946000830184610a70565b92915050565b600067ffffffffffffffff821115610ab557610ab46108a4565b5b602082029050919050565b6000610ad3610ace84610a9a565b610904565b90508060208402830185811115610aed57610aec61094b565b5b835b81811015610b165780610b028882610971565b845260208401935050602081019050610aef565b5050509392505050565b600082601f830112610b3557610b3461088e565b5b6002610b42848285610ac0565b91505092915050565b600060408284031215610b6157610b60610884565b5b6000610b6f84828501610b20565b91505092915050565b600073ffffffffffffffffffffffffffffffffffffffff82169050919050565b6000610ba382610b78565b9050919050565b610bb381610b98565b82525050565b6000602082019050610bce6000830184610baa565b92915050565b610bdd81610a66565b8114610be857600080fd5b50565b600081359050610bfa81610bd4565b92915050565b60008060408385031215610c1757610c16610884565b5b6000610c2585828601610beb565b925050602083013567ffffffffffffffff811115610c4657610c45610889565b5b610c52858286016109ef565b9150509250929050565b60008115159050919050565b610c7181610c5c565b82525050565b6000602082019050610c8c6000830184610c68565b92915050565b610c9b81610b98565b8114610ca657600080fd5b50565b600081359050610cb881610c92565b92915050565b600080fd5b600067ffffffffffffffff821115610cde57610cdd6108a4565b5b610ce782610893565b9050602081019050919050565b82818337600083830152505050565b6000610d16610d1184610cc3565b610904565b905082815260208101848484011115610d3257610d31610cbe565b5b610d3d848285610cf4565b509392505050565b600082601f830112610d5a57610d5961088e565b5b8135610d6a848260208601610d03565b91505092915050565b600080600080600080600080610100898b031215610d9457610d93610884565b5b600089013567ffffffffffffffff811115610db257610db1610889565b5b610dbe8b828c016109ef565b985050602089013567ffffffffffffffff811115610ddf57610dde610889565b5b610deb8b828c016109ef565b9750506040610dfc8b828c01610971565b9650506060610e0d8b828c01610971565b9550506080610e1e8b828c01610971565b94505060a0610e2f8b828c01610ca9565b93505060c089013567ffffffffffffffff811115610e5057610e4f610889565b5b610e5c8b828c01610d45565b92505060e089013567ffffffffffffffff811115610e7d57610e7c610889565b5b610e898b828c01610d45565b9150509295985092959890939650565b7f4e487b7100000000000000000000000000000000000000000000000000000000600052603260045260246000fd5b6000819050919050565b610ee3610ede82610950565b610ec8565b82525050565b6000610ef58284610ed2565b60208201915081905092915050565b7f4e487b7100000000000000000000000000000000000000000000000000000000600052601160045260246000fd5b6000610f3e82610950565b91507fffffffffffffffffffffffffffffffffffffffffffffffffffffffffffffffff8203610f7057610f6f610f04565b5b600182019050919050565b6000819050919050565b610f96610f9182610a66565b610f7b565b82525050565b6000610fa88285610f85565b602082019150610fb88284610f85565b6020820191508190509392505050565b7f4e487b7100000000000000000000000000000000000000000000000000000000600052601260045260246000fd5b600061100282610950565b915061100d83610950565b92508261101d5761101c610fc8565b5b828206905092915050565b600061103382610950565b915061103e83610950565b92508261104e5761104d610fc8565b5b828204905092915050565b600082825260208201905092915050565b7f496e76616c69642070726f6f6600000000000000000000000000000000000000600082015250565b60006110a0600d83611059565b91506110ab8261106a565b602082019050919050565b600060208201905081810360008301526110cf81611093565b9050919050565b7f496e76616c6964206d6573736167650000000000000000000000000000000000600082015250565b600061110c600f83611059565b9150611117826110d6565b602082019050919050565b6000602082019050818103600083015261113b816110ff565b9050919050565b600081519050919050565b600082825260208201905092915050565b6000819050602082019050919050565b61117781610950565b82525050565b6000611189838361116e565b60208301905092915050565b6000602082019050919050565b60006111ad82611142565b6111b7818561114d565b93506111c28361115e565b8060005b838110156111f35781516111da888261117d565b97506111e583611195565b9250506001810190506111c6565b5085935050505092915050565b61120981610950565b82525050565b6000608082019050818103600083015261122981876111a2565b9050818103602083015261123d81866111a2565b905061124c6040830185611200565b6112596060830184611200565b95945050505050565b61126b81610c5c565b811461127657600080fd5b50565b60008151905061128881611262565b92915050565b6000602082840312156112a4576112a3610884565b5b60006112b284828501611279565b91505092915050565b7f496e76616c69642072696e67207369676e617475726500000000000000000000600082015250565b60006112f1601683611059565b91506112fc826112bb565b602082019050919050565b60006020820190508181036000830152611320816112e4565b9050919050565b600061133282610950565b915061133d83610950565b925082820190508082111561135557611354610f04565b5b92915050565b60008151905061136a8161095a565b92915050565b60006020828403121561138657611385610884565b5b60006113948482850161135b565b91505092915050565b7f496e73756666696369656e742062616c616e636520696e206174206c6561737460008201527f206f6e6520616464726573730000000000000000000000000000000000000000602082015250565b60006113f9602c83611059565b91506114048261139d565b604082019050919050565b60006020820190508181036000830152611428816113ec565b9050919050565b600081519050919050565b60005b8381101561145857808201518184015260208101905061143d565b60008484015250505050565b600061146f8261142f565b6114798185611059565b935061148981856020860161143a565b61149281610893565b840191505092915050565b600060c0820190506114b26000830189610baa565b6114bf6020830188610baa565b81810360408301526114d18187611464565b90506114e06060830186610a70565b6114ed6080830185611200565b81810360a08301526114ff8184611464565b9050979650505050505050565b600061151782610950565b915061152283610950565b925082820390508181111561153a57611539610f04565b5b9291505056fea26469706673582212200a38d11a6dac2d402cd7ce0056477c747f5696f466fbdc740648afee7e4de56164736f6c63430008110033",
  "immutableReferences": {},
  "source": "// license: MIT\r\n\r\npragma solidity ^0.8.17;\r\n\r\nimport \"./IERC20.sol\";\r\nimport \"./ISBT.sol\";\r\nimport \"./hackyAOS/IhackyAOS.sol\";\r\n\r\n\r\n\r\ncontract verifier {\r\n\r\n    ISBT _sbt;\r\n    IHackyAOSRing _checkRingSig;\r\n\r\n    constructor(address sbt, address checkRingSig) {\r\n        _sbt = ISBT(sbt);\r\n        _checkRingSig = IHackyAOSRing(checkRingSig);\r\n    }\r\n\r\n    /**\r\n    * @dev verify a ring signature, check balances of the provided value and mint an sbt if it is valid\r\n    * @param addresses the addresses of the ring (length must be even) (addresses = [key1-x, key1-y, key2-x, key2-y, ..., keyN-x, keyN-y])\r\n    * @param tees the tees of the ring (length must be addresses.length/2) (tees = [tee1, tee2, ..., teeN])\r\n    * @param seed the seed of the ring\r\n    * @param value the value to check -> balance of each address must be >= value\r\n    * @param message the message to verify the ring signature\r\n    * @param token the token we check the balance of\r\n    * @param addressesURI the URI of the addresses on IPFS\r\n    * @param verifierData is a string which could be used id the verifier wants to be sure that the sbt has been minted for him (example : his address or somethings he asked the prover to write)\r\n    */\r\n    function verify(uint256[] memory addresses, uint256[] memory tees, uint256 seed, uint256 value, uint256 message, address token, string memory addressesURI, string memory verifierData) public {\r\n        require(addresses.length % 2 == 0 && tees.length == addresses.length / 2, \"Invalid proof\");\r\n        // verify if the message is valid -> int(eth address of the msg.sender) == message\r\n        require(uint160(msg.sender) == message, \"Invalid message\");\r\n\r\n        // verify the ring signature\r\n        require(_checkRingSig.Verify(addresses, tees, seed, message), \"Invalid ring signature\"); // c'est quoi tees et seed ?\r\n        \r\n        for (uint i = 0; i < addresses.length; i+=2) {\r\n            require(IERC20(token).balanceOf(pointToAddress([addresses[i],addresses[i+1]])) >= value, \"Insufficient balance in at least one address\");\r\n        }\r\n        bytes32 root = buildRoot(addresses); // build merkle root to save in sbt\r\n\r\n        // mint sbt\r\n        _sbt.mint(msg.sender, token, addressesURI, root, message, verifierData);        \r\n    }\r\n\r\n\r\n\r\n    // merkle tree functions\r\n\r\n    /**\r\n    * @dev build root from a list of addresses\r\n    * @param addresses the addresses to build the merkle tree from\r\n    */\r\n    function buildRoot(uint256[] memory addresses) public pure returns (bytes32) {\r\n        bytes32[] memory leaves = new bytes32[](addresses.length);\r\n        for (uint i = 0; i < addresses.length; i++) {\r\n            leaves[i] = keccak256(abi.encodePacked(addresses[i]));\r\n        }\r\n        return buildRootFromLeaves(leaves);\r\n    }\r\n\r\n    /**\r\n    * @dev build root from a list of leaves\r\n    * @param leaves the leaves to build the merkle tree from\r\n    */\r\n    function buildRootFromLeaves(bytes32[] memory leaves) private pure returns (bytes32) {\r\n        if (leaves.length == 0) {\r\n            return 0x0;\r\n        }\r\n        if (leaves.length == 1) {\r\n            return leaves[0];\r\n        }\r\n        if (leaves.length % 2 == 1) {\r\n            bytes32[] memory tmp = new bytes32[](leaves.length + 1);\r\n            for (uint i = 0; i < leaves.length; i++) {\r\n                tmp[i] = leaves[i];\r\n            }\r\n            tmp[leaves.length] = leaves[leaves.length - 1];\r\n            leaves = tmp;\r\n        }\r\n        bytes32[] memory parents = new bytes32[](leaves.length / 2);\r\n        for (uint i = 0; i < leaves.length; i += 2) {\r\n            parents[i / 2] = keccak256(abi.encodePacked(leaves[i], leaves[i + 1]));\r\n        }\r\n        return buildRootFromLeaves(parents);\r\n    }\r\n\r\n    /**\r\n    * check if a merkle root is valid\r\n    * @param root the root to check\r\n    * @param addresses the addresses to check the root against\r\n    */\r\n    function verifyRoot(bytes32 root, uint256[] memory addresses) public pure returns (bool) {\r\n        return buildRoot(addresses) == root;\r\n    }\r\n\r\n\r\n    /**\r\n    * @dev convert a point from SECP256k1 to an ethereum address\r\n    * @param points the point to convert -> [x,y]\r\n    */\r\n    function pointToAddress(uint256[2] memory points) public pure returns (address) {\r\n        // convert uint256[2] to hex string\r\n        bytes32 x = bytes32(points[0]);\r\n        bytes32 y = bytes32(points[1]);\r\n        bytes memory public_key = abi.encodePacked(x, y);\r\n        bytes32 hash = keccak256(public_key);\r\n        address ethereum_address = address(uint160(uint256(hash)));\r\n\r\n        return ethereum_address;\r\n    }\r\n}",
  "sourcePath": "C:\\Users\\hervi\\Documents\\Blockchain Projects\\ETHDenver2023\\Prooof-of-ownership-verification-----ring-signature-verification\\truffle\\contracts\\verifier.sol",
  "compiler": {
    "name": "solc",
    "version": "0.8.17+commit.8df45f5f.Emscripten.clang"
  },
  "schemaVersion": "3.4.12",
  "updatedAt": "2023-03-01T17:08:26.727Z",
  "networkType": "ethereum",
  "devdoc": {
    "kind": "dev",
    "methods": {
      "buildRoot(uint256[])": {
        "details": "build root from a list of addresses",
        "params": {
          "addresses": "the addresses to build the merkle tree from"
        }
      },
      "pointToAddress(uint256[2])": {
        "details": "convert a point from SECP256k1 to an ethereum address",
        "params": {
          "points": "the point to convert -> [x,y]"
        }
      },
      "verify(uint256[],uint256[],uint256,uint256,uint256,address,string,string)": {
        "details": "verify a ring signature, check balances of the provided value and mint an sbt if it is valid",
        "params": {
          "addresses": "the addresses of the ring (length must be even) (addresses = [key1-x, key1-y, key2-x, key2-y, ..., keyN-x, keyN-y])",
          "addressesURI": "the URI of the addresses on IPFS",
          "message": "the message to verify the ring signature",
          "seed": "the seed of the ring",
          "tees": "the tees of the ring (length must be addresses.length/2) (tees = [tee1, tee2, ..., teeN])",
          "token": "the token we check the balance of",
          "value": "the value to check -> balance of each address must be >= value",
          "verifierData": "is a string which could be used id the verifier wants to be sure that the sbt has been minted for him (example : his address or somethings he asked the prover to write)"
        }
      },
      "verifyRoot(bytes32,uint256[])": {
        "params": {
          "addresses": "the addresses to check the root against",
          "root": "the root to check"
        }
      }
    },
    "version": 1
  },
  "userdoc": {
    "kind": "user",
    "methods": {
      "verifyRoot(bytes32,uint256[])": {
        "notice": "check if a merkle root is valid"
      }
    },
    "version": 1
  }
}