{
  "contractName": "verifier",
  "abi": [
    {
      "inputs": [
        {
          "internalType": "address",
          "name": "sbt",
          "type": "address"
        },
        {
          "internalType": "address",
          "name": "checkRingSig",
          "type": "address"
        }
      ],
      "stateMutability": "nonpayable",
      "type": "constructor"
    },
    {
      "anonymous": false,
      "inputs": [
        {
          "indexed": false,
          "internalType": "address",
          "name": "",
          "type": "address"
        },
        {
          "indexed": false,
          "internalType": "uint256",
          "name": "",
          "type": "uint256"
        }
      ],
      "name": "checkBalance",
      "type": "event"
    },
    {
      "inputs": [
        {
          "internalType": "uint256[]",
          "name": "addresses",
          "type": "uint256[]"
        },
        {
          "internalType": "uint256[]",
          "name": "tees",
          "type": "uint256[]"
        },
        {
          "internalType": "uint256",
          "name": "seed",
          "type": "uint256"
        },
        {
          "internalType": "uint256",
          "name": "value",
          "type": "uint256"
        },
        {
          "internalType": "uint256",
          "name": "message",
          "type": "uint256"
        },
        {
          "internalType": "address",
          "name": "token",
          "type": "address"
        },
        {
          "internalType": "string",
          "name": "addressesURI",
          "type": "string"
        },
        {
          "internalType": "string",
          "name": "verifierData",
          "type": "string"
        }
      ],
      "name": "verify",
      "outputs": [],
      "stateMutability": "nonpayable",
      "type": "function"
    },
    {
      "inputs": [
        {
          "internalType": "uint256[]",
          "name": "addresses",
          "type": "uint256[]"
        }
      ],
      "name": "buildRoot",
      "outputs": [
        {
          "internalType": "bytes32",
          "name": "",
          "type": "bytes32"
        }
      ],
      "stateMutability": "pure",
      "type": "function",
      "constant": true
    },
    {
      "inputs": [
        {
          "internalType": "bytes32",
          "name": "root",
          "type": "bytes32"
        },
        {
          "internalType": "uint256[]",
          "name": "addresses",
          "type": "uint256[]"
        }
      ],
      "name": "verifyRoot",
      "outputs": [
        {
          "internalType": "bool",
          "name": "",
          "type": "bool"
        }
      ],
      "stateMutability": "pure",
      "type": "function",
      "constant": true
    },
    {
      "inputs": [
        {
          "internalType": "uint256[2]",
          "name": "points",
          "type": "uint256[2]"
        }
      ],
      "name": "pointToAddress",
      "outputs": [
        {
          "internalType": "address",
          "name": "",
          "type": "address"
        }
      ],
      "stateMutability": "pure",
      "type": "function",
      "constant": true
    }
  ],
  "bytecode": "0x60806040523480156200001157600080fd5b506040516200199b3803806200199b83398181016040528101906200003791906200012a565b816000806101000a81548173ffffffffffffffffffffffffffffffffffffffff021916908373ffffffffffffffffffffffffffffffffffffffff16021790555080600160006101000a81548173ffffffffffffffffffffffffffffffffffffffff021916908373ffffffffffffffffffffffffffffffffffffffff160217905550505062000171565b600080fd5b600073ffffffffffffffffffffffffffffffffffffffff82169050919050565b6000620000f282620000c5565b9050919050565b6200010481620000e5565b81146200011057600080fd5b50565b6000815190506200012481620000f9565b92915050565b60008060408385031215620001445762000143620000c0565b5b6000620001548582860162000113565b9250506020620001678582860162000113565b9150509250929050565b61181a80620001816000396000f3fe608060405234801561001057600080fd5b506004361061004c5760003560e01c80635588eb4914610051578063782fecb414610081578063d414d221146100b1578063fe283b6c146100e1575b600080fd5b61006b60048036038101906100669190610c98565b6100fd565b6040516100789190610cfa565b60405180910390f35b61009b60048036038101906100969190610dc6565b6101dd565b6040516100a89190610e34565b60405180910390f35b6100cb60048036038101906100c69190610e7b565b610265565b6040516100d89190610ef2565b60405180910390f35b6100fb60048036038101906100f69190610fee565b61027a565b005b600080825167ffffffffffffffff81111561011b5761011a610b1f565b5b6040519080825280602002602001820160405280156101495781602001602082028036833780820191505090505b50905060005b83518110156101cb5783818151811061016b5761016a611114565b5b60200260200101516040516020016101839190611164565b604051602081830303815290604052805190602001208282815181106101ac576101ab611114565b5b60200260200101818152505080806101c3906111ae565b91505061014f565b506101d58161087d565b915050919050565b600080826000600281106101f4576101f3611114565b5b602002015160001b905060008360016002811061021457610213611114565b5b602002015160001b905060008282604051602001610233929190611217565b604051602081830303815290604052905060008180519060200120905060008160001c90508095505050505050919050565b600082610271836100fd565b14905092915050565b60006002895161028a9190611272565b1480156102a45750600288516102a091906112a3565b8751145b6102e3576040517f08c379a00000000000000000000000000000000000000000000000000000000081526004016102da90611331565b60405180910390fd5b833373ffffffffffffffffffffffffffffffffffffffff161461033b576040517f08c379a00000000000000000000000000000000000000000000000000000000081526004016103329061139d565b60405180910390fd5b600160009054906101000a900473ffffffffffffffffffffffffffffffffffffffff1673ffffffffffffffffffffffffffffffffffffffff16633b40da01898989886040518563ffffffff1660e01b815260040161039c949392919061148a565b602060405180830381865afa1580156103b9573d6000803e3d6000fd5b505050506040513d601f19601f820116820180604052508101906103dd9190611509565b61041c576040517f08c379a000000000000000000000000000000000000000000000000000000000815260040161041390611582565b60405180910390fd5b600073ffffffffffffffffffffffffffffffffffffffff168373ffffffffffffffffffffffffffffffffffffffff160361052c5760005b885181101561052657856104ba60405180604001604052808c858151811061047e5761047d611114565b5b602002602001015181526020018c60018661049991906115a2565b815181106104aa576104a9611114565b5b60200260200101518152506101dd565b73ffffffffffffffffffffffffffffffffffffffff16311015610512576040517f08c379a000000000000000000000000000000000000000000000000000000000815260040161050990611648565b60405180910390fd5b60028161051f91906115a2565b9050610453565b506107d0565b60005b88518110156107ce577f4d7b9bd563cfd3e500ec00bf9e7650edc457005b6dbd5ac63e7a7a74cda2aff06105b660405180604001604052808c858151811061057a57610579611114565b5b602002602001015181526020018c60018661059591906115a2565b815181106105a6576105a5611114565b5b60200260200101518152506101dd565b8573ffffffffffffffffffffffffffffffffffffffff166370a0823161062f60405180604001604052808f88815181106105f3576105f2611114565b5b602002602001015181526020018f60018961060e91906115a2565b8151811061061f5761061e611114565b5b60200260200101518152506101dd565b6040518263ffffffff1660e01b815260040161064b9190610e34565b602060405180830381865afa158015610668573d6000803e3d6000fd5b505050506040513d601f19601f8201168201806040525081019061068c919061167d565b60405161069a9291906116aa565b60405180910390a1858473ffffffffffffffffffffffffffffffffffffffff166370a0823161071c60405180604001604052808e87815181106106e0576106df611114565b5b602002602001015181526020018e6001886106fb91906115a2565b8151811061070c5761070b611114565b5b60200260200101518152506101dd565b6040518263ffffffff1660e01b81526004016107389190610e34565b602060405180830381865afa158015610755573d6000803e3d6000fd5b505050506040513d601f19601f82011682018060405250810190610779919061167d565b10156107ba576040517f08c379a00000000000000000000000000000000000000000000000000000000081526004016107b190611648565b60405180910390fd5b6002816107c791906115a2565b905061052f565b505b60006107db896100fd565b905060008054906101000a900473ffffffffffffffffffffffffffffffffffffffff1673ffffffffffffffffffffffffffffffffffffffff1663c44bef5d338686858a886040518763ffffffff1660e01b815260040161084096959493929190611741565b600060405180830381600087803b15801561085a57600080fd5b505af115801561086e573d6000803e3d6000fd5b50505050505050505050505050565b600080825103610892576000801b9050610af0565b60018251036108be57816000815181106108af576108ae611114565b5b60200260200101519050610af0565b6001600283516108ce9190611272565b036109d4576000600183516108e391906115a2565b67ffffffffffffffff8111156108fc576108fb610b1f565b5b60405190808252806020026020018201604052801561092a5781602001602082028036833780820191505090505b50905060005b83518110156109865783818151811061094c5761094b611114565b5b602002602001015182828151811061096757610966611114565b5b602002602001018181525050808061097e906111ae565b915050610930565b50826001845161099691906117b0565b815181106109a7576109a6611114565b5b6020026020010151818451815181106109c3576109c2611114565b5b602002602001018181525050809250505b6000600283516109e491906112a3565b67ffffffffffffffff8111156109fd576109fc610b1f565b5b604051908082528060200260200182016040528015610a2b5781602001602082028036833780820191505090505b50905060005b8351811015610ae257838181518110610a4d57610a4c611114565b5b602002602001015184600183610a6391906115a2565b81518110610a7457610a73611114565b5b6020026020010151604051602001610a8d929190611217565b6040516020818303038152906040528051906020012082600283610ab191906112a3565b81518110610ac257610ac1611114565b5b602002602001018181525050600281610adb91906115a2565b9050610a31565b50610aec8161087d565b9150505b919050565b6000604051905090565b600080fd5b600080fd5b600080fd5b6000601f19601f8301169050919050565b7f4e487b7100000000000000000000000000000000000000000000000000000000600052604160045260246000fd5b610b5782610b0e565b810181811067ffffffffffffffff82111715610b7657610b75610b1f565b5b80604052505050565b6000610b89610af5565b9050610b958282610b4e565b919050565b600067ffffffffffffffff821115610bb557610bb4610b1f565b5b602082029050602081019050919050565b600080fd5b6000819050919050565b610bde81610bcb565b8114610be957600080fd5b50565b600081359050610bfb81610bd5565b92915050565b6000610c14610c0f84610b9a565b610b7f565b90508083825260208201905060208402830185811115610c3757610c36610bc6565b5b835b81811015610c605780610c4c8882610bec565b845260208401935050602081019050610c39565b5050509392505050565b600082601f830112610c7f57610c7e610b09565b5b8135610c8f848260208601610c01565b91505092915050565b600060208284031215610cae57610cad610aff565b5b600082013567ffffffffffffffff811115610ccc57610ccb610b04565b5b610cd884828501610c6a565b91505092915050565b6000819050919050565b610cf481610ce1565b82525050565b6000602082019050610d0f6000830184610ceb565b92915050565b600067ffffffffffffffff821115610d3057610d2f610b1f565b5b602082029050919050565b6000610d4e610d4984610d15565b610b7f565b90508060208402830185811115610d6857610d67610bc6565b5b835b81811015610d915780610d7d8882610bec565b845260208401935050602081019050610d6a565b5050509392505050565b600082601f830112610db057610daf610b09565b5b6002610dbd848285610d3b565b91505092915050565b600060408284031215610ddc57610ddb610aff565b5b6000610dea84828501610d9b565b91505092915050565b600073ffffffffffffffffffffffffffffffffffffffff82169050919050565b6000610e1e82610df3565b9050919050565b610e2e81610e13565b82525050565b6000602082019050610e496000830184610e25565b92915050565b610e5881610ce1565b8114610e6357600080fd5b50565b600081359050610e7581610e4f565b92915050565b60008060408385031215610e9257610e91610aff565b5b6000610ea085828601610e66565b925050602083013567ffffffffffffffff811115610ec157610ec0610b04565b5b610ecd85828601610c6a565b9150509250929050565b60008115159050919050565b610eec81610ed7565b82525050565b6000602082019050610f076000830184610ee3565b92915050565b610f1681610e13565b8114610f2157600080fd5b50565b600081359050610f3381610f0d565b92915050565b600080fd5b600067ffffffffffffffff821115610f5957610f58610b1f565b5b610f6282610b0e565b9050602081019050919050565b82818337600083830152505050565b6000610f91610f8c84610f3e565b610b7f565b905082815260208101848484011115610fad57610fac610f39565b5b610fb8848285610f6f565b509392505050565b600082601f830112610fd557610fd4610b09565b5b8135610fe5848260208601610f7e565b91505092915050565b600080600080600080600080610100898b03121561100f5761100e610aff565b5b600089013567ffffffffffffffff81111561102d5761102c610b04565b5b6110398b828c01610c6a565b985050602089013567ffffffffffffffff81111561105a57611059610b04565b5b6110668b828c01610c6a565b97505060406110778b828c01610bec565b96505060606110888b828c01610bec565b95505060806110998b828c01610bec565b94505060a06110aa8b828c01610f24565b93505060c089013567ffffffffffffffff8111156110cb576110ca610b04565b5b6110d78b828c01610fc0565b92505060e089013567ffffffffffffffff8111156110f8576110f7610b04565b5b6111048b828c01610fc0565b9150509295985092959890939650565b7f4e487b7100000000000000000000000000000000000000000000000000000000600052603260045260246000fd5b6000819050919050565b61115e61115982610bcb565b611143565b82525050565b6000611170828461114d565b60208201915081905092915050565b7f4e487b7100000000000000000000000000000000000000000000000000000000600052601160045260246000fd5b60006111b982610bcb565b91507fffffffffffffffffffffffffffffffffffffffffffffffffffffffffffffffff82036111eb576111ea61117f565b5b600182019050919050565b6000819050919050565b61121161120c82610ce1565b6111f6565b82525050565b60006112238285611200565b6020820191506112338284611200565b6020820191508190509392505050565b7f4e487b7100000000000000000000000000000000000000000000000000000000600052601260045260246000fd5b600061127d82610bcb565b915061128883610bcb565b92508261129857611297611243565b5b828206905092915050565b60006112ae82610bcb565b91506112b983610bcb565b9250826112c9576112c8611243565b5b828204905092915050565b600082825260208201905092915050565b7f496e76616c69642070726f6f6600000000000000000000000000000000000000600082015250565b600061131b600d836112d4565b9150611326826112e5565b602082019050919050565b6000602082019050818103600083015261134a8161130e565b9050919050565b7f496e76616c6964206d6573736167650000000000000000000000000000000000600082015250565b6000611387600f836112d4565b915061139282611351565b602082019050919050565b600060208201905081810360008301526113b68161137a565b9050919050565b600081519050919050565b600082825260208201905092915050565b6000819050602082019050919050565b6113f281610bcb565b82525050565b600061140483836113e9565b60208301905092915050565b6000602082019050919050565b6000611428826113bd565b61143281856113c8565b935061143d836113d9565b8060005b8381101561146e57815161145588826113f8565b975061146083611410565b925050600181019050611441565b5085935050505092915050565b61148481610bcb565b82525050565b600060808201905081810360008301526114a4818761141d565b905081810360208301526114b8818661141d565b90506114c7604083018561147b565b6114d4606083018461147b565b95945050505050565b6114e681610ed7565b81146114f157600080fd5b50565b600081519050611503816114dd565b92915050565b60006020828403121561151f5761151e610aff565b5b600061152d848285016114f4565b91505092915050565b7f496e76616c69642072696e67207369676e617475726500000000000000000000600082015250565b600061156c6016836112d4565b915061157782611536565b602082019050919050565b6000602082019050818103600083015261159b8161155f565b9050919050565b60006115ad82610bcb565b91506115b883610bcb565b92508282019050808211156115d0576115cf61117f565b5b92915050565b7f496e73756666696369656e742062616c616e636520696e206174206c6561737460008201527f206f6e6520616464726573730000000000000000000000000000000000000000602082015250565b6000611632602c836112d4565b915061163d826115d6565b604082019050919050565b6000602082019050818103600083015261166181611625565b9050919050565b60008151905061167781610bd5565b92915050565b60006020828403121561169357611692610aff565b5b60006116a184828501611668565b91505092915050565b60006040820190506116bf6000830185610e25565b6116cc602083018461147b565b9392505050565b600081519050919050565b60005b838110156116fc5780820151818401526020810190506116e1565b60008484015250505050565b6000611713826116d3565b61171d81856112d4565b935061172d8185602086016116de565b61173681610b0e565b840191505092915050565b600060c0820190506117566000830189610e25565b6117636020830188610e25565b81810360408301526117758187611708565b90506117846060830186610ceb565b611791608083018561147b565b81810360a08301526117a38184611708565b9050979650505050505050565b60006117bb82610bcb565b91506117c683610bcb565b92508282039050818111156117de576117dd61117f565b5b9291505056fea264697066735822122047784b333a55556e94930a006f112c872560d1ec2cbb03f8aca5a4eed1b1cbff64736f6c63430008110033",
  "immutableReferences": {},
  "source": "// license: MIT\r\n\r\npragma solidity ^0.8.17;\r\n\r\nimport \"./IERC20.sol\";\r\nimport \"./ISBT.sol\";\r\nimport \"./hackyAOS/IhackyAOS.sol\";\r\n\r\n\r\n\r\ncontract verifier {\r\n\r\n    ISBT _sbt;\r\n    IHackyAOSRing _checkRingSig;\r\n\r\n    constructor(address sbt, address checkRingSig) {\r\n        _sbt = ISBT(sbt);\r\n        _checkRingSig = IHackyAOSRing(checkRingSig);\r\n    }\r\n    event checkBalance(address, uint256);\r\n\r\n\r\n    /**\r\n    * @dev verify a ring signature, check balances of the provided value and mint an sbt if it is valid\r\n    * @param addresses the addresses of the ring (length must be even) (addresses = [key1-x, key1-y, key2-x, key2-y, ..., keyN-x, keyN-y])\r\n    * @param tees the tees of the ring (length must be addresses.length/2) (tees = [tee1, tee2, ..., teeN])\r\n    * @param seed the seed of the ring\r\n    * @param value the value to check -> balance of each address must be >= value\r\n    * @param message the message to verify the ring signature\r\n    * @param token the token we check the balance of. Null address if we check the balance of the native token\r\n    * @param addressesURI the URI of the addresses on IPFS\r\n    * @param verifierData is a string which could be used id the verifier wants to be sure that the sbt has been minted for him (example : his address or somethings he asked the prover to write)\r\n    */\r\n    function verify(uint256[] memory addresses, uint256[] memory tees, uint256 seed, uint256 value, uint256 message, address token, string memory addressesURI, string memory verifierData) public {\r\n        require(addresses.length % 2 == 0 && tees.length == addresses.length / 2, \"Invalid proof\");\r\n        // verify if the message is valid -> int(eth address of the msg.sender) == message\r\n        require(uint160(msg.sender) == message, \"Invalid message\");\r\n\r\n        // verify the ring signature\r\n        require(_checkRingSig.Verify(addresses, tees, seed, message), \"Invalid ring signature\"); // c'est quoi tees et seed ?\r\n        \r\n        if(token == address(0)){\r\n            for (uint i = 0; i < addresses.length; i+=2) {\r\n                require(pointToAddress([addresses[i],addresses[i+1]]).balance >= value, \"Insufficient balance in at least one address\");\r\n            }\r\n        }\r\n        else{\r\n            for (uint i = 0; i < addresses.length; i+=2) {\r\n                emit checkBalance(pointToAddress([addresses[i],addresses[i+1]]), IERC20(token).balanceOf(pointToAddress([addresses[i],addresses[i+1]])));\r\n                require(IERC20(token).balanceOf(pointToAddress([addresses[i],addresses[i+1]])) >= value, \"Insufficient balance in at least one address\");\r\n            }\r\n        }\r\n\r\n        bytes32 root = buildRoot(addresses); // build merkle root to save in sbt\r\n\r\n        // mint sbt\r\n        _sbt.mint(msg.sender, token, addressesURI, root, message, verifierData);        \r\n    }\r\n\r\n\r\n\r\n    // merkle tree functions\r\n\r\n    /**\r\n    * @dev build root from a list of addresses\r\n    * @param addresses the addresses to build the merkle tree from\r\n    */\r\n    function buildRoot(uint256[] memory addresses) public pure returns (bytes32) {\r\n        bytes32[] memory leaves = new bytes32[](addresses.length);\r\n        for (uint i = 0; i < addresses.length; i++) {\r\n            leaves[i] = keccak256(abi.encodePacked(addresses[i]));\r\n        }\r\n        return buildRootFromLeaves(leaves);\r\n    }\r\n\r\n    /**\r\n    * @dev build root from a list of leaves\r\n    * @param leaves the leaves to build the merkle tree from\r\n    */\r\n    function buildRootFromLeaves(bytes32[] memory leaves) private pure returns (bytes32) {\r\n        if (leaves.length == 0) {\r\n            return 0x0;\r\n        }\r\n        if (leaves.length == 1) {\r\n            return leaves[0];\r\n        }\r\n        if (leaves.length % 2 == 1) {\r\n            bytes32[] memory tmp = new bytes32[](leaves.length + 1);\r\n            for (uint i = 0; i < leaves.length; i++) {\r\n                tmp[i] = leaves[i];\r\n            }\r\n            tmp[leaves.length] = leaves[leaves.length - 1];\r\n            leaves = tmp;\r\n        }\r\n        bytes32[] memory parents = new bytes32[](leaves.length / 2);\r\n        for (uint i = 0; i < leaves.length; i += 2) {\r\n            parents[i / 2] = keccak256(abi.encodePacked(leaves[i], leaves[i + 1]));\r\n        }\r\n        return buildRootFromLeaves(parents);\r\n    }\r\n\r\n    /**\r\n    * check if a merkle root is valid\r\n    * @param root the root to check\r\n    * @param addresses the addresses to check the root against\r\n    */\r\n    function verifyRoot(bytes32 root, uint256[] memory addresses) public pure returns (bool) {\r\n        return buildRoot(addresses) == root;\r\n    }\r\n\r\n\r\n    /**\r\n    * @dev convert a point from SECP256k1 to an ethereum address\r\n    * @param points the point to convert -> [x,y]\r\n    */\r\n    function pointToAddress(uint256[2] memory points) public pure returns (address) {\r\n        // convert uint256[2] to hex string\r\n        bytes32 x = bytes32(points[0]);\r\n        bytes32 y = bytes32(points[1]);\r\n        bytes memory public_key = abi.encodePacked(x, y);\r\n        bytes32 hash = keccak256(public_key);\r\n        address ethereum_address = address(uint160(uint256(hash)));\r\n\r\n        return ethereum_address;\r\n    }\r\n}",
  "sourcePath": "C:\\Users\\hervi\\Documents\\Blockchain Projects\\ETHDenver2023\\Prooof-of-ownership-verification-----ring-signature-verification\\truffle\\contracts\\verifier.sol",
  "compiler": {
    "name": "solc",
    "version": "0.8.17+commit.8df45f5f.Emscripten.clang"
  },
  "schemaVersion": "3.4.12",
  "updatedAt": "2023-03-01T18:57:27.251Z",
  "networkType": "ethereum",
  "devdoc": {
    "kind": "dev",
    "methods": {
      "buildRoot(uint256[])": {
        "details": "build root from a list of addresses",
        "params": {
          "addresses": "the addresses to build the merkle tree from"
        }
      },
      "pointToAddress(uint256[2])": {
        "details": "convert a point from SECP256k1 to an ethereum address",
        "params": {
          "points": "the point to convert -> [x,y]"
        }
      },
      "verify(uint256[],uint256[],uint256,uint256,uint256,address,string,string)": {
        "details": "verify a ring signature, check balances of the provided value and mint an sbt if it is valid",
        "params": {
          "addresses": "the addresses of the ring (length must be even) (addresses = [key1-x, key1-y, key2-x, key2-y, ..., keyN-x, keyN-y])",
          "addressesURI": "the URI of the addresses on IPFS",
          "message": "the message to verify the ring signature",
          "seed": "the seed of the ring",
          "tees": "the tees of the ring (length must be addresses.length/2) (tees = [tee1, tee2, ..., teeN])",
          "token": "the token we check the balance of. Null address if we check the balance of the native token",
          "value": "the value to check -> balance of each address must be >= value",
          "verifierData": "is a string which could be used id the verifier wants to be sure that the sbt has been minted for him (example : his address or somethings he asked the prover to write)"
        }
      },
      "verifyRoot(bytes32,uint256[])": {
        "params": {
          "addresses": "the addresses to check the root against",
          "root": "the root to check"
        }
      }
    },
    "version": 1
  },
  "userdoc": {
    "kind": "user",
    "methods": {
      "verifyRoot(bytes32,uint256[])": {
        "notice": "check if a merkle root is valid"
      }
    },
    "version": 1
  }
}