{
  "contractName": "verifier",
  "abi": [
    {
      "inputs": [
        {
          "internalType": "address",
          "name": "sbt",
          "type": "address"
        },
        {
          "internalType": "address",
          "name": "checkRingSig",
          "type": "address"
        }
      ],
      "stateMutability": "nonpayable",
      "type": "constructor"
    },
    {
      "inputs": [
        {
          "internalType": "uint256[]",
          "name": "addresses",
          "type": "uint256[]"
        },
        {
          "internalType": "uint256",
          "name": "value",
          "type": "uint256"
        },
        {
          "internalType": "uint256",
          "name": "message",
          "type": "uint256"
        },
        {
          "internalType": "address",
          "name": "token",
          "type": "address"
        },
        {
          "internalType": "string",
          "name": "addressesURI",
          "type": "string"
        },
        {
          "internalType": "string",
          "name": "verifierData",
          "type": "string"
        }
      ],
      "name": "verify",
      "outputs": [],
      "stateMutability": "nonpayable",
      "type": "function"
    },
    {
      "inputs": [
        {
          "internalType": "uint256[]",
          "name": "addresses",
          "type": "uint256[]"
        }
      ],
      "name": "buildRoot",
      "outputs": [
        {
          "internalType": "bytes32",
          "name": "",
          "type": "bytes32"
        }
      ],
      "stateMutability": "pure",
      "type": "function"
    },
    {
      "inputs": [
        {
          "internalType": "bytes32",
          "name": "root",
          "type": "bytes32"
        },
        {
          "internalType": "uint256[]",
          "name": "addresses",
          "type": "uint256[]"
        }
      ],
      "name": "verifyRoot",
      "outputs": [
        {
          "internalType": "bool",
          "name": "",
          "type": "bool"
        }
      ],
      "stateMutability": "view",
      "type": "function"
    },
    {
      "inputs": [
        {
          "internalType": "uint256[2]",
          "name": "points",
          "type": "uint256[2]"
        }
      ],
      "name": "pointsToAddresses",
      "outputs": [
        {
          "internalType": "address",
          "name": "",
          "type": "address"
        }
      ],
      "stateMutability": "pure",
      "type": "function"
    },
    {
      "inputs": [
        {
          "internalType": "bytes32",
          "name": "_bytes32",
          "type": "bytes32"
        }
      ],
      "name": "bytes32Last40",
      "outputs": [
        {
          "internalType": "string",
          "name": "",
          "type": "string"
        }
      ],
      "stateMutability": "pure",
      "type": "function"
    },
    {
      "inputs": [
        {
          "internalType": "bytes32",
          "name": "_bytes",
          "type": "bytes32"
        }
      ],
      "name": "bytes32ToUint160",
      "outputs": [
        {
          "internalType": "uint160",
          "name": "",
          "type": "uint160"
        }
      ],
      "stateMutability": "pure",
      "type": "function"
    }
  ],
  "bytecode": "0x60806040523480156200001157600080fd5b5060405162001c3a38038062001c3a83398181016040528101906200003791906200012a565b816000806101000a81548173ffffffffffffffffffffffffffffffffffffffff021916908373ffffffffffffffffffffffffffffffffffffffff16021790555080600160006101000a81548173ffffffffffffffffffffffffffffffffffffffff021916908373ffffffffffffffffffffffffffffffffffffffff160217905550505062000171565b600080fd5b600073ffffffffffffffffffffffffffffffffffffffff82169050919050565b6000620000f282620000c5565b9050919050565b6200010481620000e5565b81146200011057600080fd5b50565b6000815190506200012481620000f9565b92915050565b60008060408385031215620001445762000143620000c0565b5b6000620001548582860162000113565b9250506020620001678582860162000113565b9150509250929050565b611ab980620001816000396000f3fe608060405234801561001057600080fd5b50600436106100625760003560e01c80631f280fde146100675780634ed795a0146100975780635588eb49146100b35780635e3c2f4d146100e3578063cb1b0bea14610113578063d414d22114610143575b600080fd5b610081600480360381019061007c9190610e51565b610173565b60405161008e9190610ebf565b60405180910390f35b6100b160048036038101906100ac919061107e565b610229565b005b6100cd60048036038101906100c8919061115f565b61059c565b6040516100da91906111c1565b60405180910390f35b6100fd60048036038101906100f89190611208565b61067c565b60405161010a9190611244565b60405180910390f35b61012d60048036038101906101289190611208565b6106d6565b60405161013a91906112de565b60405180910390f35b61015d60048036038101906101589190611300565b610812565b60405161016a9190611377565b60405180910390f35b60008060405180602001604052806000815250905060006101ab846000600281106101a1576101a0611392565b5b6020020151610827565b6101cc856001600281106101c2576101c1611392565b5b6020020151610827565b6040516020016101dd9291906113fd565b604051602081830303815290604052915061021d826040516020016102029190611421565b6040516020818303038152906040528051906020012061067c565b90508092505050919050565b6000600287516102399190611467565b14610279576040517f08c379a0000000000000000000000000000000000000000000000000000000008152600401610270906114e4565b60405180910390fd5b6000600287516102899190611467565b67ffffffffffffffff8111156102a2576102a1610cea565b5b6040519080825280602002602001820160405280156102d05781602001602082028036833780820191505090505b5090506000600160009054906101000a900473ffffffffffffffffffffffffffffffffffffffff1673ffffffffffffffffffffffffffffffffffffffff16633b40da018984848a6040518563ffffffff1660e01b815260040161033694939291906115d1565b602060405180830381865afa158015610353573d6000803e3d6000fd5b505050506040513d601f19601f820116820180604052508101906103779190611650565b6103b6576040517f08c379a00000000000000000000000000000000000000000000000000000000081526004016103ad906116c9565b60405180910390fd5b60005b88518110156104ee57878673ffffffffffffffffffffffffffffffffffffffff166370a0823161043c60405180604001604052808e8781518110610400576103ff611392565b5b602002602001015181526020018e60018861041b9190611718565b8151811061042c5761042b611392565b5b6020026020010151815250610173565b6040518263ffffffff1660e01b81526004016104589190610ebf565b602060405180830381865afa158015610475573d6000803e3d6000fd5b505050506040513d601f19601f820116820180604052508101906104999190611761565b10156104da576040517f08c379a00000000000000000000000000000000000000000000000000000000081526004016104d190611800565b60405180910390fd5b6002816104e79190611718565b90506103b9565b5060006104fa8961059c565b905060008054906101000a900473ffffffffffffffffffffffffffffffffffffffff1673ffffffffffffffffffffffffffffffffffffffff1663c44bef5d338888858c8a6040518763ffffffff1660e01b815260040161055f96959493929190611820565b600060405180830381600087803b15801561057957600080fd5b505af115801561058d573d6000803e3d6000fd5b50505050505050505050505050565b600080825167ffffffffffffffff8111156105ba576105b9610cea565b5b6040519080825280602002602001820160405280156105e85781602001602082028036833780820191505090505b50905060005b835181101561066a5783818151811061060a57610609611392565b5b602002602001015160405160200161062291906118b0565b6040516020818303038152906040528051906020012082828151811061064b5761064a611392565b5b6020026020010181815250508080610662906118cb565b9150506105ee565b50610674816108f5565b915050919050565b60006014602060ff16146106c5576040517f08c379a00000000000000000000000000000000000000000000000000000000081526004016106bc90611985565b60405180910390fd5b60008290508060601c915050919050565b606060007fffffffffffffffffffffffffffffffffffffffffffffffffffffffffffffffff8360405160200161070d9291906119c6565b60405160208183030381529060405290506000602867ffffffffffffffff81111561073b5761073a610cea565b5b6040519080825280601f01601f19166020018201604052801561076d5781602001600182028036833780820191505090505b50905060005b60288110156108075782816028855161078c91906119f2565b6107969190611718565b815181106107a7576107a6611392565b5b602001015160f81c60f81b8282815181106107c5576107c4611392565b5b60200101907effffffffffffffffffffffffffffffffffffffffffffffffffffffffffffff1916908160001a90535080806107ff906118cb565b915050610773565b508092505050919050565b60008261081e8361059c565b14905092915050565b60606000600161083684610b6d565b01905060008167ffffffffffffffff81111561085557610854610cea565b5b6040519080825280601f01601f1916602001820160405280156108875781602001600182028036833780820191505090505b509050600082602001820190505b6001156108ea578080600190039150507f3031323334353637383961626364656600000000000000000000000000000000600a86061a8153600a85816108de576108dd611438565b5b04945060008503610895575b819350505050919050565b60008082510361090a576000801b9050610b68565b6001825103610936578160008151811061092757610926611392565b5b60200260200101519050610b68565b6001600283516109469190611467565b03610a4c5760006001835161095b9190611718565b67ffffffffffffffff81111561097457610973610cea565b5b6040519080825280602002602001820160405280156109a25781602001602082028036833780820191505090505b50905060005b83518110156109fe578381815181106109c4576109c3611392565b5b60200260200101518282815181106109df576109de611392565b5b60200260200101818152505080806109f6906118cb565b9150506109a8565b508260018451610a0e91906119f2565b81518110610a1f57610a1e611392565b5b602002602001015181845181518110610a3b57610a3a611392565b5b602002602001018181525050809250505b600060028351610a5c9190611a26565b67ffffffffffffffff811115610a7557610a74610cea565b5b604051908082528060200260200182016040528015610aa35781602001602082028036833780820191505090505b50905060005b8351811015610b5a57838181518110610ac557610ac4611392565b5b602002602001015184600183610adb9190611718565b81518110610aec57610aeb611392565b5b6020026020010151604051602001610b05929190611a57565b6040516020818303038152906040528051906020012082600283610b299190611a26565b81518110610b3a57610b39611392565b5b602002602001018181525050600281610b539190611718565b9050610aa9565b50610b64816108f5565b9150505b919050565b600080600090507a184f03e93ff9f4daa797ed6e38ed64bf6a1f0100000000000000008310610bcb577a184f03e93ff9f4daa797ed6e38ed64bf6a1f0100000000000000008381610bc157610bc0611438565b5b0492506040810190505b6d04ee2d6d415b85acef81000000008310610c08576d04ee2d6d415b85acef81000000008381610bfe57610bfd611438565b5b0492506020810190505b662386f26fc100008310610c3757662386f26fc100008381610c2d57610c2c611438565b5b0492506010810190505b6305f5e1008310610c60576305f5e1008381610c5657610c55611438565b5b0492506008810190505b6127108310610c85576127108381610c7b57610c7a611438565b5b0492506004810190505b60648310610ca85760648381610c9e57610c9d611438565b5b0492506002810190505b600a8310610cb7576001810190505b80915050919050565b6000604051905090565b600080fd5b600080fd5b600080fd5b6000601f19601f8301169050919050565b7f4e487b7100000000000000000000000000000000000000000000000000000000600052604160045260246000fd5b610d2282610cd9565b810181811067ffffffffffffffff82111715610d4157610d40610cea565b5b80604052505050565b6000610d54610cc0565b9050610d608282610d19565b919050565b600067ffffffffffffffff821115610d8057610d7f610cea565b5b602082029050919050565b600080fd5b6000819050919050565b610da381610d90565b8114610dae57600080fd5b50565b600081359050610dc081610d9a565b92915050565b6000610dd9610dd484610d65565b610d4a565b90508060208402830185811115610df357610df2610d8b565b5b835b81811015610e1c5780610e088882610db1565b845260208401935050602081019050610df5565b5050509392505050565b600082601f830112610e3b57610e3a610cd4565b5b6002610e48848285610dc6565b91505092915050565b600060408284031215610e6757610e66610cca565b5b6000610e7584828501610e26565b91505092915050565b600073ffffffffffffffffffffffffffffffffffffffff82169050919050565b6000610ea982610e7e565b9050919050565b610eb981610e9e565b82525050565b6000602082019050610ed46000830184610eb0565b92915050565b600067ffffffffffffffff821115610ef557610ef4610cea565b5b602082029050602081019050919050565b6000610f19610f1484610eda565b610d4a565b90508083825260208201905060208402830185811115610f3c57610f3b610d8b565b5b835b81811015610f655780610f518882610db1565b845260208401935050602081019050610f3e565b5050509392505050565b600082601f830112610f8457610f83610cd4565b5b8135610f94848260208601610f06565b91505092915050565b610fa681610e9e565b8114610fb157600080fd5b50565b600081359050610fc381610f9d565b92915050565b600080fd5b600067ffffffffffffffff821115610fe957610fe8610cea565b5b610ff282610cd9565b9050602081019050919050565b82818337600083830152505050565b600061102161101c84610fce565b610d4a565b90508281526020810184848401111561103d5761103c610fc9565b5b611048848285610fff565b509392505050565b600082601f83011261106557611064610cd4565b5b813561107584826020860161100e565b91505092915050565b60008060008060008060c0878903121561109b5761109a610cca565b5b600087013567ffffffffffffffff8111156110b9576110b8610ccf565b5b6110c589828a01610f6f565b96505060206110d689828a01610db1565b95505060406110e789828a01610db1565b94505060606110f889828a01610fb4565b935050608087013567ffffffffffffffff81111561111957611118610ccf565b5b61112589828a01611050565b92505060a087013567ffffffffffffffff81111561114657611145610ccf565b5b61115289828a01611050565b9150509295509295509295565b60006020828403121561117557611174610cca565b5b600082013567ffffffffffffffff81111561119357611192610ccf565b5b61119f84828501610f6f565b91505092915050565b6000819050919050565b6111bb816111a8565b82525050565b60006020820190506111d660008301846111b2565b92915050565b6111e5816111a8565b81146111f057600080fd5b50565b600081359050611202816111dc565b92915050565b60006020828403121561121e5761121d610cca565b5b600061122c848285016111f3565b91505092915050565b61123e81610e7e565b82525050565b60006020820190506112596000830184611235565b92915050565b600081519050919050565b600082825260208201905092915050565b60005b8381101561129957808201518184015260208101905061127e565b60008484015250505050565b60006112b08261125f565b6112ba818561126a565b93506112ca81856020860161127b565b6112d381610cd9565b840191505092915050565b600060208201905081810360008301526112f881846112a5565b905092915050565b6000806040838503121561131757611316610cca565b5b6000611325858286016111f3565b925050602083013567ffffffffffffffff81111561134657611345610ccf565b5b61135285828601610f6f565b9150509250929050565b60008115159050919050565b6113718161135c565b82525050565b600060208201905061138c6000830184611368565b92915050565b7f4e487b7100000000000000000000000000000000000000000000000000000000600052603260045260246000fd5b600081905092915050565b60006113d78261125f565b6113e181856113c1565b93506113f181856020860161127b565b80840191505092915050565b600061140982856113cc565b915061141582846113cc565b91508190509392505050565b600061142d82846113cc565b915081905092915050565b7f4e487b7100000000000000000000000000000000000000000000000000000000600052601260045260246000fd5b600061147282610d90565b915061147d83610d90565b92508261148d5761148c611438565b5b828206905092915050565b7f616464726573736573206c656e677468206d757374206265206576656e000000600082015250565b60006114ce601d8361126a565b91506114d982611498565b602082019050919050565b600060208201905081810360008301526114fd816114c1565b9050919050565b600081519050919050565b600082825260208201905092915050565b6000819050602082019050919050565b61153981610d90565b82525050565b600061154b8383611530565b60208301905092915050565b6000602082019050919050565b600061156f82611504565b611579818561150f565b935061158483611520565b8060005b838110156115b557815161159c888261153f565b97506115a783611557565b925050600181019050611588565b5085935050505092915050565b6115cb81610d90565b82525050565b600060808201905081810360008301526115eb8187611564565b905081810360208301526115ff8186611564565b905061160e60408301856115c2565b61161b60608301846115c2565b95945050505050565b61162d8161135c565b811461163857600080fd5b50565b60008151905061164a81611624565b92915050565b60006020828403121561166657611665610cca565b5b60006116748482850161163b565b91505092915050565b7f496e76616c69642072696e67207369676e617475726500000000000000000000600082015250565b60006116b360168361126a565b91506116be8261167d565b602082019050919050565b600060208201905081810360008301526116e2816116a6565b9050919050565b7f4e487b7100000000000000000000000000000000000000000000000000000000600052601160045260246000fd5b600061172382610d90565b915061172e83610d90565b9250828201905080821115611746576117456116e9565b5b92915050565b60008151905061175b81610d9a565b92915050565b60006020828403121561177757611776610cca565b5b60006117858482850161174c565b91505092915050565b7f496e73756666696369656e742062616c616e636520696e206174206c6561737460008201527f206f6e6520616464726573730000000000000000000000000000000000000000602082015250565b60006117ea602c8361126a565b91506117f58261178e565b604082019050919050565b60006020820190508181036000830152611819816117dd565b9050919050565b600060c0820190506118356000830189610eb0565b6118426020830188610eb0565b818103604083015261185481876112a5565b905061186360608301866111b2565b61187060808301856115c2565b81810360a083015261188281846112a5565b9050979650505050505050565b6000819050919050565b6118aa6118a582610d90565b61188f565b82525050565b60006118bc8284611899565b60208201915081905092915050565b60006118d682610d90565b91507fffffffffffffffffffffffffffffffffffffffffffffffffffffffffffffffff8203611908576119076116e9565b5b600182019050919050565b7f42797465733332546f55696e743136303a20496e76616c69642062797465732060008201527f6c656e6774680000000000000000000000000000000000000000000000000000602082015250565b600061196f60268361126a565b915061197a82611913565b604082019050919050565b6000602082019050818103600083015261199e81611962565b9050919050565b6000819050919050565b6119c06119bb826111a8565b6119a5565b82525050565b60006119d28285611899565b6020820191506119e282846119af565b6020820191508190509392505050565b60006119fd82610d90565b9150611a0883610d90565b9250828203905081811115611a2057611a1f6116e9565b5b92915050565b6000611a3182610d90565b9150611a3c83610d90565b925082611a4c57611a4b611438565b5b828204905092915050565b6000611a6382856119af565b602082019150611a7382846119af565b602082019150819050939250505056fea2646970667358221220a289a58fef0949ae2c43eed596b949bb15c5b5ab8752507c2faac45554b0fa4864736f6c63430008110033",
  "immutableReferences": {},
  "source": "// license: MIT\r\n\r\npragma solidity ^0.8.17;\r\n\r\nimport \"./IERC20.sol\";\r\nimport \"./ISBT.sol\";\r\nimport \"./hackyAOS/IhackyAOS.sol\";\r\nimport \"@openzeppelin/contracts/utils/Strings.sol\";\r\n\r\n\r\n\r\ncontract verifier {\r\n\r\n    ISBT _sbt;\r\n    IHackyAOSRing _checkRingSig;\r\n\r\n    constructor(address sbt, address checkRingSig) {\r\n        _sbt = ISBT(sbt);\r\n        _checkRingSig = IHackyAOSRing(checkRingSig);\r\n    }\r\n\r\n    /**\r\n    * @dev verify a ring signature, check balances of the provided value and mint an sbt if it is valid\r\n    * @param addresses the addresses of the ring (length must be even) (addresses = [key1-x, key1-y, key2-x, key2-y, ..., keyN-x, keyN-y])\r\n    * @param value the value to check -> balance of each address must be >= value\r\n    * @param message the message to verify the ring signature\r\n    * @param token the token we check the balance of\r\n    * @param addressesURI the URI of the addresses on IPFS\r\n    * @param verifierData is a string which could be used id the verifier wants to be sure that the sbt has been minted for him (example : his address or somethings he asked the prover to write)\r\n    */\r\n    function verify(uint256[] memory addresses,uint256 value, uint256 message, address token, string memory addressesURI, string memory verifierData) public {\r\n        require(addresses.length % 2 == 0, \"addresses length must be even\");\r\n        uint256[] memory tees = new uint256[](addresses.length % 2);\r\n        uint256 seed = 0;\r\n        // verify the ring signature\r\n        require(_checkRingSig.Verify(addresses, tees, seed, message), \"Invalid ring signature\"); // c'est quoi tees et seed ?\r\n        \r\n        for (uint i = 0; i < addresses.length; i+=2) {\r\n            require(IERC20(token).balanceOf(pointsToAddresses([addresses[i],addresses[i+1]])) >= value, \"Insufficient balance in at least one address\");\r\n        }\r\n        bytes32 root = buildRoot(addresses); // build merkle root to save in sbt\r\n\r\n        // mint sbt\r\n        _sbt.mint(msg.sender, token, addressesURI, root, message, verifierData);        \r\n    }\r\n\r\n\r\n\r\n    // merkle tree functions\r\n\r\n    /**\r\n    * @dev build root from a list of addresses\r\n    * @param addresses the addresses to build the merkle tree from\r\n    */\r\n    function buildRoot(uint256[] memory addresses) public pure returns (bytes32) {\r\n        bytes32[] memory leaves = new bytes32[](addresses.length);\r\n        for (uint i = 0; i < addresses.length; i++) {\r\n            leaves[i] = keccak256(abi.encodePacked(addresses[i]));\r\n        }\r\n        return buildRootFromLeaves(leaves);\r\n    }\r\n\r\n    /**\r\n    * @dev build root from a list of leaves\r\n    * @param leaves the leaves to build the merkle tree from\r\n    */\r\n    function buildRootFromLeaves(bytes32[] memory leaves) private pure returns (bytes32) {\r\n        if (leaves.length == 0) {\r\n            return 0x0;\r\n        }\r\n        if (leaves.length == 1) {\r\n            return leaves[0];\r\n        }\r\n        if (leaves.length % 2 == 1) {\r\n            bytes32[] memory tmp = new bytes32[](leaves.length + 1);\r\n            for (uint i = 0; i < leaves.length; i++) {\r\n                tmp[i] = leaves[i];\r\n            }\r\n            tmp[leaves.length] = leaves[leaves.length - 1];\r\n            leaves = tmp;\r\n        }\r\n        bytes32[] memory parents = new bytes32[](leaves.length / 2);\r\n        for (uint i = 0; i < leaves.length; i += 2) {\r\n            parents[i / 2] = keccak256(abi.encodePacked(leaves[i], leaves[i + 1]));\r\n        }\r\n        return buildRootFromLeaves(parents);\r\n    }\r\n\r\n    /**\r\n    * check if a merkle root is valid\r\n    * @param root the root to check\r\n    * @param addresses the addresses to check the root against\r\n    */\r\n    function verifyRoot(bytes32 root, uint256[] memory addresses) public view returns (bool) {\r\n        return buildRoot(addresses) == root;\r\n    }\r\n\r\n\r\n\r\n    function pointsToAddresses(uint256[2] memory points) public pure returns (address) {\r\n        string memory concat = \"\";\r\n        uint160 adresse;\r\n        \r\n        concat = string.concat(Strings.toString(points[0]), Strings.toString(points[1]));\r\n        // take the las 40 characters of the hash\r\n        // adresse = string.concat(\"0x\", bytes32Last40(keccak256(abi.encodePacked(concat))));\r\n        adresse = bytes32ToUint160(keccak256(abi.encodePacked(concat)));\r\n        \r\n        return address(adresse);\r\n    }\r\n\r\n    function bytes32Last40(bytes32 _bytes32) public pure returns (string memory) {\r\n        bytes memory bytesArray = abi.encodePacked(type(uint256).max, _bytes32);\r\n        bytes memory last40Bytes = new bytes(40);\r\n        for (uint256 i = 0; i < 40; i++) {\r\n            last40Bytes[i] = bytesArray[bytesArray.length - 40 + i];\r\n        }\r\n        return string(last40Bytes);\r\n    }\r\n\r\n    function bytes32ToUint160(bytes32 _bytes) public pure returns (uint160) {\r\n        require(_bytes.length == 20, \"Bytes32ToUint160: Invalid bytes length\");\r\n        bytes20 bytes20Value = bytes20(_bytes);\r\n        return uint160(bytes20Value);\r\n    }\r\n\r\n    \r\n\r\n}",
  "sourcePath": "C:\\Users\\hervi\\Documents\\Blockchain Projects\\ETHDenver2023\\Prooof-of-ownership-verification-----ring-signature-verification\\truffle\\contracts\\verifier.sol",
  "compiler": {
    "name": "solc",
    "version": "0.8.17+commit.8df45f5f.Emscripten.clang"
  },
  "schemaVersion": "3.4.12",
  "updatedAt": "2023-03-01T05:24:18.928Z",
  "devdoc": {
    "kind": "dev",
    "methods": {
      "buildRoot(uint256[])": {
        "details": "build root from a list of addresses",
        "params": {
          "addresses": "the addresses to build the merkle tree from"
        }
      },
      "verify(uint256[],uint256,uint256,address,string,string)": {
        "details": "verify a ring signature, check balances of the provided value and mint an sbt if it is valid",
        "params": {
          "addresses": "the addresses of the ring (length must be even) (addresses = [key1-x, key1-y, key2-x, key2-y, ..., keyN-x, keyN-y])",
          "addressesURI": "the URI of the addresses on IPFS",
          "message": "the message to verify the ring signature",
          "token": "the token we check the balance of",
          "value": "the value to check -> balance of each address must be >= value",
          "verifierData": "is a string which could be used id the verifier wants to be sure that the sbt has been minted for him (example : his address or somethings he asked the prover to write)"
        }
      },
      "verifyRoot(bytes32,uint256[])": {
        "params": {
          "addresses": "the addresses to check the root against",
          "root": "the root to check"
        }
      }
    },
    "version": 1
  },
  "userdoc": {
    "kind": "user",
    "methods": {
      "verifyRoot(bytes32,uint256[])": {
        "notice": "check if a merkle root is valid"
      }
    },
    "version": 1
  }
}