{
  "contractName": "verifier",
  "abi": [
    {
      "inputs": [
        {
          "internalType": "address",
          "name": "sbt",
          "type": "address"
        },
        {
          "internalType": "address",
          "name": "checkRingSig",
          "type": "address"
        }
      ],
      "stateMutability": "nonpayable",
      "type": "constructor"
    },
    {
      "inputs": [
        {
          "internalType": "uint256[]",
          "name": "addresses",
          "type": "uint256[]"
        },
        {
          "internalType": "uint256",
          "name": "value",
          "type": "uint256"
        },
        {
          "internalType": "uint256",
          "name": "message",
          "type": "uint256"
        },
        {
          "internalType": "address",
          "name": "token",
          "type": "address"
        },
        {
          "internalType": "string",
          "name": "addressesURI",
          "type": "string"
        },
        {
          "internalType": "string",
          "name": "verifierData",
          "type": "string"
        }
      ],
      "name": "verify",
      "outputs": [],
      "stateMutability": "nonpayable",
      "type": "function"
    },
    {
      "inputs": [
        {
          "internalType": "uint256[]",
          "name": "addresses",
          "type": "uint256[]"
        }
      ],
      "name": "buildRoot",
      "outputs": [
        {
          "internalType": "bytes32",
          "name": "",
          "type": "bytes32"
        }
      ],
      "stateMutability": "pure",
      "type": "function"
    },
    {
      "inputs": [
        {
          "internalType": "bytes32",
          "name": "root",
          "type": "bytes32"
        },
        {
          "internalType": "uint256[]",
          "name": "addresses",
          "type": "uint256[]"
        }
      ],
      "name": "verifyRoot",
      "outputs": [
        {
          "internalType": "bool",
          "name": "",
          "type": "bool"
        }
      ],
      "stateMutability": "view",
      "type": "function"
    },
    {
      "inputs": [
        {
          "internalType": "uint256[2]",
          "name": "points",
          "type": "uint256[2]"
        }
      ],
      "name": "pointToAddress",
      "outputs": [
        {
          "internalType": "address",
          "name": "",
          "type": "address"
        }
      ],
      "stateMutability": "pure",
      "type": "function"
    }
  ],
  "bytecode": "0x60806040523480156200001157600080fd5b50604051620016313803806200163183398181016040528101906200003791906200012a565b816000806101000a81548173ffffffffffffffffffffffffffffffffffffffff021916908373ffffffffffffffffffffffffffffffffffffffff16021790555080600160006101000a81548173ffffffffffffffffffffffffffffffffffffffff021916908373ffffffffffffffffffffffffffffffffffffffff160217905550505062000171565b600080fd5b600073ffffffffffffffffffffffffffffffffffffffff82169050919050565b6000620000f282620000c5565b9050919050565b6200010481620000e5565b81146200011057600080fd5b50565b6000815190506200012481620000f9565b92915050565b60008060408385031215620001445762000143620000c0565b5b6000620001548582860162000113565b9250506020620001678582860162000113565b9150509250929050565b6114b080620001816000396000f3fe608060405234801561001057600080fd5b506004361061004c5760003560e01c80634ed795a0146100515780635588eb491461006d578063782fecb41461009d578063d414d221146100cd575b600080fd5b61006b60048036038101906100669190610b1b565b6100fd565b005b61008760048036038101906100829190610bfc565b610470565b6040516100949190610c5e565b60405180910390f35b6100b760048036038101906100b29190610d2a565b610550565b6040516100c49190610d66565b60405180910390f35b6100e760048036038101906100e29190610dad565b6105d8565b6040516100f49190610e24565b60405180910390f35b60006002875161010d9190610e6e565b1461014d576040517f08c379a000000000000000000000000000000000000000000000000000000000815260040161014490610efc565b60405180910390fd5b60006002875161015d9190610e6e565b67ffffffffffffffff8111156101765761017561088f565b5b6040519080825280602002602001820160405280156101a45781602001602082028036833780820191505090505b5090506000600160009054906101000a900473ffffffffffffffffffffffffffffffffffffffff1673ffffffffffffffffffffffffffffffffffffffff16633b40da018984848a6040518563ffffffff1660e01b815260040161020a9493929190610fe9565b602060405180830381865afa158015610227573d6000803e3d6000fd5b505050506040513d601f19601f8201168201806040525081019061024b9190611068565b61028a576040517f08c379a0000000000000000000000000000000000000000000000000000000008152600401610281906110e1565b60405180910390fd5b60005b88518110156103c257878673ffffffffffffffffffffffffffffffffffffffff166370a0823161031060405180604001604052808e87815181106102d4576102d3611101565b5b602002602001015181526020018e6001886102ef919061115f565b81518110610300576102ff611101565b5b6020026020010151815250610550565b6040518263ffffffff1660e01b815260040161032c9190610d66565b602060405180830381865afa158015610349573d6000803e3d6000fd5b505050506040513d601f19601f8201168201806040525081019061036d91906111a8565b10156103ae576040517f08c379a00000000000000000000000000000000000000000000000000000000081526004016103a590611247565b60405180910390fd5b6002816103bb919061115f565b905061028d565b5060006103ce89610470565b905060008054906101000a900473ffffffffffffffffffffffffffffffffffffffff1673ffffffffffffffffffffffffffffffffffffffff1663c44bef5d338888858c8a6040518763ffffffff1660e01b8152600401610433969594939291906112d5565b600060405180830381600087803b15801561044d57600080fd5b505af1158015610461573d6000803e3d6000fd5b50505050505050505050505050565b600080825167ffffffffffffffff81111561048e5761048d61088f565b5b6040519080825280602002602001820160405280156104bc5781602001602082028036833780820191505090505b50905060005b835181101561053e578381815181106104de576104dd611101565b5b60200260200101516040516020016104f69190611365565b6040516020818303038152906040528051906020012082828151811061051f5761051e611101565b5b602002602001018181525050808061053690611380565b9150506104c2565b50610548816105ed565b915050919050565b6000808260006002811061056757610566611101565b5b602002015160001b905060008360016002811061058757610586611101565b5b602002015160001b9050600082826040516020016105a69291906113e9565b604051602081830303815290604052905060008180519060200120905060008160001c90508095505050505050919050565b6000826105e483610470565b14905092915050565b600080825103610602576000801b9050610860565b600182510361062e578160008151811061061f5761061e611101565b5b60200260200101519050610860565b60016002835161063e9190610e6e565b0361074457600060018351610653919061115f565b67ffffffffffffffff81111561066c5761066b61088f565b5b60405190808252806020026020018201604052801561069a5781602001602082028036833780820191505090505b50905060005b83518110156106f6578381815181106106bc576106bb611101565b5b60200260200101518282815181106106d7576106d6611101565b5b60200260200101818152505080806106ee90611380565b9150506106a0565b5082600184516107069190611415565b8151811061071757610716611101565b5b60200260200101518184518151811061073357610732611101565b5b602002602001018181525050809250505b6000600283516107549190611449565b67ffffffffffffffff81111561076d5761076c61088f565b5b60405190808252806020026020018201604052801561079b5781602001602082028036833780820191505090505b50905060005b8351811015610852578381815181106107bd576107bc611101565b5b6020026020010151846001836107d3919061115f565b815181106107e4576107e3611101565b5b60200260200101516040516020016107fd9291906113e9565b60405160208183030381529060405280519060200120826002836108219190611449565b8151811061083257610831611101565b5b60200260200101818152505060028161084b919061115f565b90506107a1565b5061085c816105ed565b9150505b919050565b6000604051905090565b600080fd5b600080fd5b600080fd5b6000601f19601f8301169050919050565b7f4e487b7100000000000000000000000000000000000000000000000000000000600052604160045260246000fd5b6108c78261087e565b810181811067ffffffffffffffff821117156108e6576108e561088f565b5b80604052505050565b60006108f9610865565b905061090582826108be565b919050565b600067ffffffffffffffff8211156109255761092461088f565b5b602082029050602081019050919050565b600080fd5b6000819050919050565b61094e8161093b565b811461095957600080fd5b50565b60008135905061096b81610945565b92915050565b600061098461097f8461090a565b6108ef565b905080838252602082019050602084028301858111156109a7576109a6610936565b5b835b818110156109d057806109bc888261095c565b8452602084019350506020810190506109a9565b5050509392505050565b600082601f8301126109ef576109ee610879565b5b81356109ff848260208601610971565b91505092915050565b600073ffffffffffffffffffffffffffffffffffffffff82169050919050565b6000610a3382610a08565b9050919050565b610a4381610a28565b8114610a4e57600080fd5b50565b600081359050610a6081610a3a565b92915050565b600080fd5b600067ffffffffffffffff821115610a8657610a8561088f565b5b610a8f8261087e565b9050602081019050919050565b82818337600083830152505050565b6000610abe610ab984610a6b565b6108ef565b905082815260208101848484011115610ada57610ad9610a66565b5b610ae5848285610a9c565b509392505050565b600082601f830112610b0257610b01610879565b5b8135610b12848260208601610aab565b91505092915050565b60008060008060008060c08789031215610b3857610b3761086f565b5b600087013567ffffffffffffffff811115610b5657610b55610874565b5b610b6289828a016109da565b9650506020610b7389828a0161095c565b9550506040610b8489828a0161095c565b9450506060610b9589828a01610a51565b935050608087013567ffffffffffffffff811115610bb657610bb5610874565b5b610bc289828a01610aed565b92505060a087013567ffffffffffffffff811115610be357610be2610874565b5b610bef89828a01610aed565b9150509295509295509295565b600060208284031215610c1257610c1161086f565b5b600082013567ffffffffffffffff811115610c3057610c2f610874565b5b610c3c848285016109da565b91505092915050565b6000819050919050565b610c5881610c45565b82525050565b6000602082019050610c736000830184610c4f565b92915050565b600067ffffffffffffffff821115610c9457610c9361088f565b5b602082029050919050565b6000610cb2610cad84610c79565b6108ef565b90508060208402830185811115610ccc57610ccb610936565b5b835b81811015610cf55780610ce1888261095c565b845260208401935050602081019050610cce565b5050509392505050565b600082601f830112610d1457610d13610879565b5b6002610d21848285610c9f565b91505092915050565b600060408284031215610d4057610d3f61086f565b5b6000610d4e84828501610cff565b91505092915050565b610d6081610a28565b82525050565b6000602082019050610d7b6000830184610d57565b92915050565b610d8a81610c45565b8114610d9557600080fd5b50565b600081359050610da781610d81565b92915050565b60008060408385031215610dc457610dc361086f565b5b6000610dd285828601610d98565b925050602083013567ffffffffffffffff811115610df357610df2610874565b5b610dff858286016109da565b9150509250929050565b60008115159050919050565b610e1e81610e09565b82525050565b6000602082019050610e396000830184610e15565b92915050565b7f4e487b7100000000000000000000000000000000000000000000000000000000600052601260045260246000fd5b6000610e798261093b565b9150610e848361093b565b925082610e9457610e93610e3f565b5b828206905092915050565b600082825260208201905092915050565b7f616464726573736573206c656e677468206d757374206265206576656e000000600082015250565b6000610ee6601d83610e9f565b9150610ef182610eb0565b602082019050919050565b60006020820190508181036000830152610f1581610ed9565b9050919050565b600081519050919050565b600082825260208201905092915050565b6000819050602082019050919050565b610f518161093b565b82525050565b6000610f638383610f48565b60208301905092915050565b6000602082019050919050565b6000610f8782610f1c565b610f918185610f27565b9350610f9c83610f38565b8060005b83811015610fcd578151610fb48882610f57565b9750610fbf83610f6f565b925050600181019050610fa0565b5085935050505092915050565b610fe38161093b565b82525050565b600060808201905081810360008301526110038187610f7c565b905081810360208301526110178186610f7c565b90506110266040830185610fda565b6110336060830184610fda565b95945050505050565b61104581610e09565b811461105057600080fd5b50565b6000815190506110628161103c565b92915050565b60006020828403121561107e5761107d61086f565b5b600061108c84828501611053565b91505092915050565b7f496e76616c69642072696e67207369676e617475726500000000000000000000600082015250565b60006110cb601683610e9f565b91506110d682611095565b602082019050919050565b600060208201905081810360008301526110fa816110be565b9050919050565b7f4e487b7100000000000000000000000000000000000000000000000000000000600052603260045260246000fd5b7f4e487b7100000000000000000000000000000000000000000000000000000000600052601160045260246000fd5b600061116a8261093b565b91506111758361093b565b925082820190508082111561118d5761118c611130565b5b92915050565b6000815190506111a281610945565b92915050565b6000602082840312156111be576111bd61086f565b5b60006111cc84828501611193565b91505092915050565b7f496e73756666696369656e742062616c616e636520696e206174206c6561737460008201527f206f6e6520616464726573730000000000000000000000000000000000000000602082015250565b6000611231602c83610e9f565b915061123c826111d5565b604082019050919050565b6000602082019050818103600083015261126081611224565b9050919050565b600081519050919050565b60005b83811015611290578082015181840152602081019050611275565b60008484015250505050565b60006112a782611267565b6112b18185610e9f565b93506112c1818560208601611272565b6112ca8161087e565b840191505092915050565b600060c0820190506112ea6000830189610d57565b6112f76020830188610d57565b8181036040830152611309818761129c565b90506113186060830186610c4f565b6113256080830185610fda565b81810360a0830152611337818461129c565b9050979650505050505050565b6000819050919050565b61135f61135a8261093b565b611344565b82525050565b6000611371828461134e565b60208201915081905092915050565b600061138b8261093b565b91507fffffffffffffffffffffffffffffffffffffffffffffffffffffffffffffffff82036113bd576113bc611130565b5b600182019050919050565b6000819050919050565b6113e36113de82610c45565b6113c8565b82525050565b60006113f582856113d2565b60208201915061140582846113d2565b6020820191508190509392505050565b60006114208261093b565b915061142b8361093b565b925082820390508181111561144357611442611130565b5b92915050565b60006114548261093b565b915061145f8361093b565b92508261146f5761146e610e3f565b5b82820490509291505056fea26469706673582212201dd8439910eeecdf662eec01eec13eceba25a7170f31d69197368ab3fbe3dccf64736f6c63430008110033",
  "immutableReferences": {},
  "source": "// license: MIT\r\n\r\npragma solidity ^0.8.17;\r\n\r\nimport \"./IERC20.sol\";\r\nimport \"./ISBT.sol\";\r\nimport \"./hackyAOS/IhackyAOS.sol\";\r\n\r\n\r\n\r\ncontract verifier {\r\n\r\n    ISBT _sbt;\r\n    IHackyAOSRing _checkRingSig;\r\n\r\n    constructor(address sbt, address checkRingSig) {\r\n        _sbt = ISBT(sbt);\r\n        _checkRingSig = IHackyAOSRing(checkRingSig);\r\n    }\r\n\r\n    /**\r\n    * @dev verify a ring signature, check balances of the provided value and mint an sbt if it is valid\r\n    * @param addresses the addresses of the ring (length must be even) (addresses = [key1-x, key1-y, key2-x, key2-y, ..., keyN-x, keyN-y])\r\n    * @param value the value to check -> balance of each address must be >= value\r\n    * @param message the message to verify the ring signature\r\n    * @param token the token we check the balance of\r\n    * @param addressesURI the URI of the addresses on IPFS\r\n    * @param verifierData is a string which could be used id the verifier wants to be sure that the sbt has been minted for him (example : his address or somethings he asked the prover to write)\r\n    */\r\n    function verify(uint256[] memory addresses,uint256 value, uint256 message, address token, string memory addressesURI, string memory verifierData) public {\r\n        require(addresses.length % 2 == 0, \"addresses length must be even\");\r\n        uint256[] memory tees = new uint256[](addresses.length % 2);\r\n        uint256 seed = 0;\r\n        // verify the ring signature\r\n        require(_checkRingSig.Verify(addresses, tees, seed, message), \"Invalid ring signature\"); // c'est quoi tees et seed ?\r\n        \r\n        for (uint i = 0; i < addresses.length; i+=2) {\r\n            require(IERC20(token).balanceOf(pointToAddress([addresses[i],addresses[i+1]])) >= value, \"Insufficient balance in at least one address\");\r\n        }\r\n        bytes32 root = buildRoot(addresses); // build merkle root to save in sbt\r\n\r\n        // mint sbt\r\n        _sbt.mint(msg.sender, token, addressesURI, root, message, verifierData);        \r\n    }\r\n\r\n\r\n\r\n    // merkle tree functions\r\n\r\n    /**\r\n    * @dev build root from a list of addresses\r\n    * @param addresses the addresses to build the merkle tree from\r\n    */\r\n    function buildRoot(uint256[] memory addresses) public pure returns (bytes32) {\r\n        bytes32[] memory leaves = new bytes32[](addresses.length);\r\n        for (uint i = 0; i < addresses.length; i++) {\r\n            leaves[i] = keccak256(abi.encodePacked(addresses[i]));\r\n        }\r\n        return buildRootFromLeaves(leaves);\r\n    }\r\n\r\n    /**\r\n    * @dev build root from a list of leaves\r\n    * @param leaves the leaves to build the merkle tree from\r\n    */\r\n    function buildRootFromLeaves(bytes32[] memory leaves) private pure returns (bytes32) {\r\n        if (leaves.length == 0) {\r\n            return 0x0;\r\n        }\r\n        if (leaves.length == 1) {\r\n            return leaves[0];\r\n        }\r\n        if (leaves.length % 2 == 1) {\r\n            bytes32[] memory tmp = new bytes32[](leaves.length + 1);\r\n            for (uint i = 0; i < leaves.length; i++) {\r\n                tmp[i] = leaves[i];\r\n            }\r\n            tmp[leaves.length] = leaves[leaves.length - 1];\r\n            leaves = tmp;\r\n        }\r\n        bytes32[] memory parents = new bytes32[](leaves.length / 2);\r\n        for (uint i = 0; i < leaves.length; i += 2) {\r\n            parents[i / 2] = keccak256(abi.encodePacked(leaves[i], leaves[i + 1]));\r\n        }\r\n        return buildRootFromLeaves(parents);\r\n    }\r\n\r\n    /**\r\n    * check if a merkle root is valid\r\n    * @param root the root to check\r\n    * @param addresses the addresses to check the root against\r\n    */\r\n    function verifyRoot(bytes32 root, uint256[] memory addresses) public view returns (bool) {\r\n        return buildRoot(addresses) == root;\r\n    }\r\n\r\n\r\n    /**\r\n    * @dev convert a point from SECP256k1 to an ethereum address\r\n    * @param points the point to convert -> [x,y]\r\n    */\r\n    function pointToAddress(uint256[2] memory points) public pure returns (address) {\r\n        // convert uint256[2] to hex string\r\n        bytes32 x = bytes32(points[0]);\r\n        bytes32 y = bytes32(points[1]);\r\n        bytes memory public_key = abi.encodePacked(x, y);\r\n        bytes32 hash = keccak256(public_key);\r\n        address ethereum_address = address(uint160(uint256(hash)));\r\n\r\n        return ethereum_address;\r\n    }\r\n}",
  "sourcePath": "C:\\Users\\hervi\\Documents\\Blockchain Projects\\ETHDenver2023\\Prooof-of-ownership-verification-----ring-signature-verification\\truffle\\contracts\\verifier.sol",
  "compiler": {
    "name": "solc",
    "version": "0.8.17+commit.8df45f5f.Emscripten.clang"
  },
  "schemaVersion": "3.4.12",
  "updatedAt": "2023-03-01T06:41:38.056Z",
  "devdoc": {
    "kind": "dev",
    "methods": {
      "buildRoot(uint256[])": {
        "details": "build root from a list of addresses",
        "params": {
          "addresses": "the addresses to build the merkle tree from"
        }
      },
      "pointToAddress(uint256[2])": {
        "details": "convert a point from SECP256k1 to an ethereum address",
        "params": {
          "points": "the point to convert -> [x,y]"
        }
      },
      "verify(uint256[],uint256,uint256,address,string,string)": {
        "details": "verify a ring signature, check balances of the provided value and mint an sbt if it is valid",
        "params": {
          "addresses": "the addresses of the ring (length must be even) (addresses = [key1-x, key1-y, key2-x, key2-y, ..., keyN-x, keyN-y])",
          "addressesURI": "the URI of the addresses on IPFS",
          "message": "the message to verify the ring signature",
          "token": "the token we check the balance of",
          "value": "the value to check -> balance of each address must be >= value",
          "verifierData": "is a string which could be used id the verifier wants to be sure that the sbt has been minted for him (example : his address or somethings he asked the prover to write)"
        }
      },
      "verifyRoot(bytes32,uint256[])": {
        "params": {
          "addresses": "the addresses to check the root against",
          "root": "the root to check"
        }
      }
    },
    "version": 1
  },
  "userdoc": {
    "kind": "user",
    "methods": {
      "verifyRoot(bytes32,uint256[])": {
        "notice": "check if a merkle root is valid"
      }
    },
    "version": 1
  }
}