{
  "contractName": "verifier",
  "abi": [
    {
      "inputs": [
        {
          "internalType": "address",
          "name": "sbt",
          "type": "address"
        },
        {
          "internalType": "address",
          "name": "checkRingSig",
          "type": "address"
        }
      ],
      "stateMutability": "nonpayable",
      "type": "constructor"
    },
    {
      "inputs": [
        {
          "internalType": "uint256[]",
          "name": "addresses",
          "type": "uint256[]"
        },
        {
          "internalType": "uint256[]",
          "name": "tees",
          "type": "uint256[]"
        },
        {
          "internalType": "uint256",
          "name": "seed",
          "type": "uint256"
        },
        {
          "internalType": "uint256",
          "name": "value",
          "type": "uint256"
        },
        {
          "internalType": "uint256",
          "name": "message",
          "type": "uint256"
        },
        {
          "internalType": "address",
          "name": "token",
          "type": "address"
        },
        {
          "internalType": "string",
          "name": "addressesURI",
          "type": "string"
        },
        {
          "internalType": "string",
          "name": "verifierData",
          "type": "string"
        }
      ],
      "name": "verify",
      "outputs": [],
      "stateMutability": "nonpayable",
      "type": "function"
    },
    {
      "inputs": [
        {
          "internalType": "uint256[]",
          "name": "addresses",
          "type": "uint256[]"
        }
      ],
      "name": "buildRoot",
      "outputs": [
        {
          "internalType": "bytes32",
          "name": "",
          "type": "bytes32"
        }
      ],
      "stateMutability": "pure",
      "type": "function",
      "constant": true
    },
    {
      "inputs": [
        {
          "internalType": "bytes32",
          "name": "root",
          "type": "bytes32"
        },
        {
          "internalType": "uint256[]",
          "name": "addresses",
          "type": "uint256[]"
        }
      ],
      "name": "verifyRoot",
      "outputs": [
        {
          "internalType": "bool",
          "name": "",
          "type": "bool"
        }
      ],
      "stateMutability": "pure",
      "type": "function",
      "constant": true
    },
    {
      "inputs": [
        {
          "internalType": "uint256[2]",
          "name": "points",
          "type": "uint256[2]"
        }
      ],
      "name": "pointsToAddress",
      "outputs": [
        {
          "internalType": "address",
          "name": "",
          "type": "address"
        }
      ],
      "stateMutability": "pure",
      "type": "function",
      "constant": true
    }
  ],
  "bytecode": "0x60806040523480156200001157600080fd5b50604051620018183803806200181883398181016040528101906200003791906200012a565b816000806101000a81548173ffffffffffffffffffffffffffffffffffffffff021916908373ffffffffffffffffffffffffffffffffffffffff16021790555080600160006101000a81548173ffffffffffffffffffffffffffffffffffffffff021916908373ffffffffffffffffffffffffffffffffffffffff160217905550505062000171565b600080fd5b600073ffffffffffffffffffffffffffffffffffffffff82169050919050565b6000620000f282620000c5565b9050919050565b6200010481620000e5565b81146200011057600080fd5b50565b6000815190506200012481620000f9565b92915050565b60008060408385031215620001445762000143620000c0565b5b6000620001548582860162000113565b9250506020620001678582860162000113565b9150509250929050565b61169780620001816000396000f3fe608060405234801561001057600080fd5b506004361061004c5760003560e01c80635588eb4914610051578063d414d22114610081578063ea043b0f146100b1578063fe283b6c146100e1575b600080fd5b61006b60048036038101906100669190610b30565b6100fd565b6040516100789190610b92565b60405180910390f35b61009b60048036038101906100969190610bd9565b6101dd565b6040516100a89190610c50565b60405180910390f35b6100cb60048036038101906100c69190610d1c565b6101f2565b6040516100d89190610d8a565b60405180910390f35b6100fb60048036038101906100f69190610e86565b61027a565b005b600080825167ffffffffffffffff81111561011b5761011a6109b7565b5b6040519080825280602002602001820160405280156101495781602001602082028036833780820191505090505b50905060005b83518110156101cb5783818151811061016b5761016a610fac565b5b60200260200101516040516020016101839190610ffc565b604051602081830303815290604052805190602001208282815181106101ac576101ab610fac565b5b60200260200101818152505080806101c390611046565b91505061014f565b506101d581610715565b915050919050565b6000826101e9836100fd565b14905092915050565b6000808260006002811061020957610208610fac565b5b602002015160001b905060008360016002811061022957610228610fac565b5b602002015160001b9050600082826040516020016102489291906110af565b604051602081830303815290604052905060008180519060200120905060008160001c90508095505050505050919050565b60006002895161028a919061110a565b1480156102a45750600288516102a0919061113b565b8751145b6102e3576040517f08c379a00000000000000000000000000000000000000000000000000000000081526004016102da906111c9565b60405180910390fd5b833373ffffffffffffffffffffffffffffffffffffffff161461033b576040517f08c379a000000000000000000000000000000000000000000000000000000000815260040161033290611235565b60405180910390fd5b600160009054906101000a900473ffffffffffffffffffffffffffffffffffffffff1673ffffffffffffffffffffffffffffffffffffffff16633b40da01898989886040518563ffffffff1660e01b815260040161039c9493929190611322565b602060405180830381865afa1580156103b9573d6000803e3d6000fd5b505050506040513d601f19601f820116820180604052508101906103dd91906113a1565b61041c576040517f08c379a00000000000000000000000000000000000000000000000000000000081526004016104139061141a565b60405180910390fd5b600073ffffffffffffffffffffffffffffffffffffffff168373ffffffffffffffffffffffffffffffffffffffff160361052c5760005b885181101561052657856104ba60405180604001604052808c858151811061047e5761047d610fac565b5b602002602001015181526020018c600186610499919061143a565b815181106104aa576104a9610fac565b5b60200260200101518152506101f2565b73ffffffffffffffffffffffffffffffffffffffff16311015610512576040517f08c379a0000000000000000000000000000000000000000000000000000000008152600401610509906114e0565b60405180910390fd5b60028161051f919061143a565b9050610453565b50610666565b60005b885181101561066457858473ffffffffffffffffffffffffffffffffffffffff166370a082316105b260405180604001604052808e878151811061057657610575610fac565b5b602002602001015181526020018e600188610591919061143a565b815181106105a2576105a1610fac565b5b60200260200101518152506101f2565b6040518263ffffffff1660e01b81526004016105ce9190610d8a565b602060405180830381865afa1580156105eb573d6000803e3d6000fd5b505050506040513d601f19601f8201168201806040525081019061060f9190611515565b1015610650576040517f08c379a0000000000000000000000000000000000000000000000000000000008152600401610647906114e0565b60405180910390fd5b60028161065d919061143a565b905061052f565b505b6000610671896100fd565b905060008054906101000a900473ffffffffffffffffffffffffffffffffffffffff1673ffffffffffffffffffffffffffffffffffffffff16636ddc64bc33868987868b896040518863ffffffff1660e01b81526004016106d897969594939291906115b0565b600060405180830381600087803b1580156106f257600080fd5b505af1158015610706573d6000803e3d6000fd5b50505050505050505050505050565b60008082510361072a576000801b9050610988565b6001825103610756578160008151811061074757610746610fac565b5b60200260200101519050610988565b600160028351610766919061110a565b0361086c5760006001835161077b919061143a565b67ffffffffffffffff811115610794576107936109b7565b5b6040519080825280602002602001820160405280156107c25781602001602082028036833780820191505090505b50905060005b835181101561081e578381815181106107e4576107e3610fac565b5b60200260200101518282815181106107ff576107fe610fac565b5b602002602001018181525050808061081690611046565b9150506107c8565b50826001845161082e919061162d565b8151811061083f5761083e610fac565b5b60200260200101518184518151811061085b5761085a610fac565b5b602002602001018181525050809250505b60006002835161087c919061113b565b67ffffffffffffffff811115610895576108946109b7565b5b6040519080825280602002602001820160405280156108c35781602001602082028036833780820191505090505b50905060005b835181101561097a578381815181106108e5576108e4610fac565b5b6020026020010151846001836108fb919061143a565b8151811061090c5761090b610fac565b5b60200260200101516040516020016109259291906110af565b6040516020818303038152906040528051906020012082600283610949919061113b565b8151811061095a57610959610fac565b5b602002602001018181525050600281610973919061143a565b90506108c9565b5061098481610715565b9150505b919050565b6000604051905090565b600080fd5b600080fd5b600080fd5b6000601f19601f8301169050919050565b7f4e487b7100000000000000000000000000000000000000000000000000000000600052604160045260246000fd5b6109ef826109a6565b810181811067ffffffffffffffff82111715610a0e57610a0d6109b7565b5b80604052505050565b6000610a2161098d565b9050610a2d82826109e6565b919050565b600067ffffffffffffffff821115610a4d57610a4c6109b7565b5b602082029050602081019050919050565b600080fd5b6000819050919050565b610a7681610a63565b8114610a8157600080fd5b50565b600081359050610a9381610a6d565b92915050565b6000610aac610aa784610a32565b610a17565b90508083825260208201905060208402830185811115610acf57610ace610a5e565b5b835b81811015610af85780610ae48882610a84565b845260208401935050602081019050610ad1565b5050509392505050565b600082601f830112610b1757610b166109a1565b5b8135610b27848260208601610a99565b91505092915050565b600060208284031215610b4657610b45610997565b5b600082013567ffffffffffffffff811115610b6457610b6361099c565b5b610b7084828501610b02565b91505092915050565b6000819050919050565b610b8c81610b79565b82525050565b6000602082019050610ba76000830184610b83565b92915050565b610bb681610b79565b8114610bc157600080fd5b50565b600081359050610bd381610bad565b92915050565b60008060408385031215610bf057610bef610997565b5b6000610bfe85828601610bc4565b925050602083013567ffffffffffffffff811115610c1f57610c1e61099c565b5b610c2b85828601610b02565b9150509250929050565b60008115159050919050565b610c4a81610c35565b82525050565b6000602082019050610c656000830184610c41565b92915050565b600067ffffffffffffffff821115610c8657610c856109b7565b5b602082029050919050565b6000610ca4610c9f84610c6b565b610a17565b90508060208402830185811115610cbe57610cbd610a5e565b5b835b81811015610ce75780610cd38882610a84565b845260208401935050602081019050610cc0565b5050509392505050565b600082601f830112610d0657610d056109a1565b5b6002610d13848285610c91565b91505092915050565b600060408284031215610d3257610d31610997565b5b6000610d4084828501610cf1565b91505092915050565b600073ffffffffffffffffffffffffffffffffffffffff82169050919050565b6000610d7482610d49565b9050919050565b610d8481610d69565b82525050565b6000602082019050610d9f6000830184610d7b565b92915050565b610dae81610d69565b8114610db957600080fd5b50565b600081359050610dcb81610da5565b92915050565b600080fd5b600067ffffffffffffffff821115610df157610df06109b7565b5b610dfa826109a6565b9050602081019050919050565b82818337600083830152505050565b6000610e29610e2484610dd6565b610a17565b905082815260208101848484011115610e4557610e44610dd1565b5b610e50848285610e07565b509392505050565b600082601f830112610e6d57610e6c6109a1565b5b8135610e7d848260208601610e16565b91505092915050565b600080600080600080600080610100898b031215610ea757610ea6610997565b5b600089013567ffffffffffffffff811115610ec557610ec461099c565b5b610ed18b828c01610b02565b985050602089013567ffffffffffffffff811115610ef257610ef161099c565b5b610efe8b828c01610b02565b9750506040610f0f8b828c01610a84565b9650506060610f208b828c01610a84565b9550506080610f318b828c01610a84565b94505060a0610f428b828c01610dbc565b93505060c089013567ffffffffffffffff811115610f6357610f6261099c565b5b610f6f8b828c01610e58565b92505060e089013567ffffffffffffffff811115610f9057610f8f61099c565b5b610f9c8b828c01610e58565b9150509295985092959890939650565b7f4e487b7100000000000000000000000000000000000000000000000000000000600052603260045260246000fd5b6000819050919050565b610ff6610ff182610a63565b610fdb565b82525050565b60006110088284610fe5565b60208201915081905092915050565b7f4e487b7100000000000000000000000000000000000000000000000000000000600052601160045260246000fd5b600061105182610a63565b91507fffffffffffffffffffffffffffffffffffffffffffffffffffffffffffffffff820361108357611082611017565b5b600182019050919050565b6000819050919050565b6110a96110a482610b79565b61108e565b82525050565b60006110bb8285611098565b6020820191506110cb8284611098565b6020820191508190509392505050565b7f4e487b7100000000000000000000000000000000000000000000000000000000600052601260045260246000fd5b600061111582610a63565b915061112083610a63565b9250826111305761112f6110db565b5b828206905092915050565b600061114682610a63565b915061115183610a63565b925082611161576111606110db565b5b828204905092915050565b600082825260208201905092915050565b7f496e76616c696420417267756d656e7473000000000000000000000000000000600082015250565b60006111b360118361116c565b91506111be8261117d565b602082019050919050565b600060208201905081810360008301526111e2816111a6565b9050919050565b7f496e76616c6964206d6573736167650000000000000000000000000000000000600082015250565b600061121f600f8361116c565b915061122a826111e9565b602082019050919050565b6000602082019050818103600083015261124e81611212565b9050919050565b600081519050919050565b600082825260208201905092915050565b6000819050602082019050919050565b61128a81610a63565b82525050565b600061129c8383611281565b60208301905092915050565b6000602082019050919050565b60006112c082611255565b6112ca8185611260565b93506112d583611271565b8060005b838110156113065781516112ed8882611290565b97506112f8836112a8565b9250506001810190506112d9565b5085935050505092915050565b61131c81610a63565b82525050565b6000608082019050818103600083015261133c81876112b5565b9050818103602083015261135081866112b5565b905061135f6040830185611313565b61136c6060830184611313565b95945050505050565b61137e81610c35565b811461138957600080fd5b50565b60008151905061139b81611375565b92915050565b6000602082840312156113b7576113b6610997565b5b60006113c58482850161138c565b91505092915050565b7f496e76616c69642072696e67207369676e617475726500000000000000000000600082015250565b600061140460168361116c565b915061140f826113ce565b602082019050919050565b60006020820190508181036000830152611433816113f7565b9050919050565b600061144582610a63565b915061145083610a63565b925082820190508082111561146857611467611017565b5b92915050565b7f496e73756666696369656e742062616c616e636520696e206174206c6561737460008201527f206f6e6520616464726573730000000000000000000000000000000000000000602082015250565b60006114ca602c8361116c565b91506114d58261146e565b604082019050919050565b600060208201905081810360008301526114f9816114bd565b9050919050565b60008151905061150f81610a6d565b92915050565b60006020828403121561152b5761152a610997565b5b600061153984828501611500565b91505092915050565b600081519050919050565b60005b8381101561156b578082015181840152602081019050611550565b60008484015250505050565b600061158282611542565b61158c818561116c565b935061159c81856020860161154d565b6115a5816109a6565b840191505092915050565b600060e0820190506115c5600083018a610d7b565b6115d26020830189610d7b565b6115df6040830188611313565b81810360608301526115f18187611577565b90506116006080830186610b83565b61160d60a0830185611313565b81810360c083015261161f8184611577565b905098975050505050505050565b600061163882610a63565b915061164383610a63565b925082820390508181111561165b5761165a611017565b5b9291505056fea26469706673582212204285781b9aaeea1f5d8e99debd2bed8fe58436b983bc4e275891089e0fc77f3264736f6c63430008110033",
  "immutableReferences": {},
  "source": "// license: UNLICENSED\r\n\r\npragma solidity ^0.8.17;\r\n\r\nimport \"./IERC20.sol\";\r\nimport \"./ISBT.sol\";\r\nimport \"./hackyAOS/IhackyAOS.sol\";\r\n\r\n\r\n\r\ncontract verifier {\r\n\r\n    ISBT _sbt;\r\n    IHackyAOSRing _checkRingSig;\r\n\r\n    constructor(address sbt, address checkRingSig) {\r\n        _sbt = ISBT(sbt);\r\n        _checkRingSig = IHackyAOSRing(checkRingSig);\r\n    }\r\n\r\n\r\n    /**\r\n    * @notice verify a ring signature, check balances of the provided value and mint an sbt if it is valid\r\n    * @param addresses the addresses of the ring (length must be even) (addresses = [key1-x, key1-y, key2-x, key2-y, ..., keyN-x, keyN-y])\r\n    * @param tees the tees of the ring (length must be addresses.length/2) (tees = [tee1, tee2, ..., teeN])\r\n    * @param seed the seed of the ring\r\n    * @param value the value to check -> balance of each address must be >= value\r\n    * @param message the message to verify the ring signature\r\n    * @param token the token we check the balance of. Null address if we check the balance of the native token\r\n    * @param addressesURI the URI of the addresses on IPFS\r\n    * @param verifierData is a string which could be used id the verifier wants to be sure that the sbt has been minted for him (example : his address or somethings he asked the prover to write)\r\n    */\r\n    function verify(uint256[] memory addresses, uint256[] memory tees, uint256 seed, uint256 value, uint256 message, address token, string memory addressesURI, string memory verifierData) public {\r\n        require(addresses.length % 2 == 0 && tees.length == addresses.length / 2, \"Invalid Arguments\");\r\n        // verify if the message is valid -> int(eth address of the msg.sender) == message\r\n        require(uint160(msg.sender) == message, \"Invalid message\");\r\n\r\n        // verify the ring signature\r\n        require(_checkRingSig.Verify(addresses, tees, seed, message), \"Invalid ring signature\"); // c'est quoi tees et seed ?\r\n        \r\n        if(token == address(0)){\r\n            for (uint i = 0; i < addresses.length; i+=2) {\r\n                require(pointsToAddress([addresses[i],addresses[i+1]]).balance >= value, \"Insufficient balance in at least one address\");\r\n            }\r\n        }\r\n        else{\r\n            for (uint i = 0; i < addresses.length; i+=2) {\r\n                require(IERC20(token).balanceOf(pointsToAddress([addresses[i],addresses[i+1]])) >= value, \"Insufficient balance in at least one address\");\r\n            }\r\n        }\r\n\r\n        bytes32 root = buildRoot(addresses); // build merkle root to save in sbt\r\n\r\n        // mint sbt\r\n        _sbt.mint(msg.sender, token, value, addressesURI, root, message, verifierData);        \r\n    }\r\n\r\n\r\n\r\n    // merkle tree functions\r\n\r\n    /**\r\n    * @notice build root from a list of addresses\r\n    * @param addresses the addresses to build the merkle tree from\r\n    */\r\n    function buildRoot(uint256[] memory addresses) public pure returns (bytes32) {\r\n        bytes32[] memory leaves = new bytes32[](addresses.length);\r\n        for (uint i = 0; i < addresses.length; i++) {\r\n            leaves[i] = keccak256(abi.encodePacked(addresses[i]));\r\n        }\r\n        return buildRootFromLeaves(leaves);\r\n    }\r\n\r\n    /**\r\n    * @notice build root from a list of leaves\r\n    * @param leaves the leaves to build the merkle tree from\r\n    */\r\n    function buildRootFromLeaves(bytes32[] memory leaves) private pure returns (bytes32) {\r\n        if (leaves.length == 0) {\r\n            return 0x0;\r\n        }\r\n        if (leaves.length == 1) {\r\n            return leaves[0];\r\n        }\r\n        if (leaves.length % 2 == 1) {\r\n            bytes32[] memory tmp = new bytes32[](leaves.length + 1);\r\n            for (uint i = 0; i < leaves.length; i++) {\r\n                tmp[i] = leaves[i];\r\n            }\r\n            tmp[leaves.length] = leaves[leaves.length - 1];\r\n            leaves = tmp;\r\n        }\r\n        bytes32[] memory parents = new bytes32[](leaves.length / 2);\r\n        for (uint i = 0; i < leaves.length; i += 2) {\r\n            parents[i / 2] = keccak256(abi.encodePacked(leaves[i], leaves[i + 1]));\r\n        }\r\n        return buildRootFromLeaves(parents);\r\n    }\r\n\r\n    /**\r\n    * @notice check if a merkle root is valid\r\n    * @param root the root to check\r\n    * @param addresses the addresses to check the root against\r\n    */\r\n    function verifyRoot(bytes32 root, uint256[] memory addresses) public pure returns (bool) {\r\n        return buildRoot(addresses) == root;\r\n    }\r\n\r\n\r\n    /**\r\n    * @notice convert a point from SECP256k1 to an ethereum address\r\n    * @param points the point to convert -> [x,y]\r\n    */\r\n    function pointsToAddress(uint256[2] memory points) public pure returns (address) {\r\n        // convert uint256[2] to hex string\r\n        bytes32 x = bytes32(points[0]);\r\n        bytes32 y = bytes32(points[1]);\r\n        bytes memory public_key = abi.encodePacked(x, y);\r\n        bytes32 hash = keccak256(public_key);\r\n        address ethereum_address = address(uint160(uint256(hash)));\r\n\r\n        return ethereum_address;\r\n    }\r\n}",
  "sourcePath": "C:\\Users\\hervi\\Documents\\Blockchain Projects\\ETHDenver2023\\Prooof-of-ownership-verification-----ring-signature-verification\\truffle\\contracts\\verifier.sol",
  "compiler": {
    "name": "solc",
    "version": "0.8.17+commit.8df45f5f.Emscripten.clang"
  },
  "schemaVersion": "3.4.12",
  "updatedAt": "2023-03-04T19:03:38.349Z",
  "networkType": "ethereum",
  "devdoc": {
    "kind": "dev",
    "methods": {
      "buildRoot(uint256[])": {
        "params": {
          "addresses": "the addresses to build the merkle tree from"
        }
      },
      "pointsToAddress(uint256[2])": {
        "params": {
          "points": "the point to convert -> [x,y]"
        }
      },
      "verify(uint256[],uint256[],uint256,uint256,uint256,address,string,string)": {
        "params": {
          "addresses": "the addresses of the ring (length must be even) (addresses = [key1-x, key1-y, key2-x, key2-y, ..., keyN-x, keyN-y])",
          "addressesURI": "the URI of the addresses on IPFS",
          "message": "the message to verify the ring signature",
          "seed": "the seed of the ring",
          "tees": "the tees of the ring (length must be addresses.length/2) (tees = [tee1, tee2, ..., teeN])",
          "token": "the token we check the balance of. Null address if we check the balance of the native token",
          "value": "the value to check -> balance of each address must be >= value",
          "verifierData": "is a string which could be used id the verifier wants to be sure that the sbt has been minted for him (example : his address or somethings he asked the prover to write)"
        }
      },
      "verifyRoot(bytes32,uint256[])": {
        "params": {
          "addresses": "the addresses to check the root against",
          "root": "the root to check"
        }
      }
    },
    "version": 1
  },
  "userdoc": {
    "kind": "user",
    "methods": {
      "buildRoot(uint256[])": {
        "notice": "build root from a list of addresses"
      },
      "pointsToAddress(uint256[2])": {
        "notice": "convert a point from SECP256k1 to an ethereum address"
      },
      "verify(uint256[],uint256[],uint256,uint256,uint256,address,string,string)": {
        "notice": "verify a ring signature, check balances of the provided value and mint an sbt if it is valid"
      },
      "verifyRoot(bytes32,uint256[])": {
        "notice": "check if a merkle root is valid"
      }
    },
    "version": 1
  }
}